{
  "contractName": "Exchange",
  "abi": [
    {
      "constant": true,
      "inputs": [],
      "name": "DEFAULT_ADDRESS",
      "outputs": [
        {
          "name": "",
          "type": "address"
        }
      ],
      "payable": false,
      "stateMutability": "view",
      "type": "function"
    },
    {
      "constant": true,
      "inputs": [],
      "name": "owner",
      "outputs": [
        {
          "name": "",
          "type": "address"
        }
      ],
      "payable": false,
      "stateMutability": "view",
      "type": "function"
    },
    {
      "constant": true,
      "inputs": [],
      "name": "ETH_ADDRESS",
      "outputs": [
        {
          "name": "",
          "type": "address"
        }
      ],
      "payable": false,
      "stateMutability": "view",
      "type": "function"
    },
    {
      "constant": true,
      "inputs": [
        {
          "name": "",
          "type": "address"
        }
      ],
      "name": "listReserve",
      "outputs": [
        {
          "name": "",
          "type": "address"
        }
      ],
      "payable": false,
      "stateMutability": "view",
      "type": "function"
    },
    {
      "inputs": [],
      "payable": false,
      "stateMutability": "nonpayable",
      "type": "constructor"
    },
    {
      "payable": true,
      "stateMutability": "payable",
      "type": "fallback"
    },
    {
      "constant": false,
      "inputs": [
        {
          "name": "_reserve",
          "type": "address"
        },
        {
          "name": "_token",
          "type": "address"
        },
        {
          "name": "_isAdd",
          "type": "bool"
        }
      ],
      "name": "addReserve",
      "outputs": [
        {
          "name": "",
          "type": "bool"
        }
      ],
      "payable": false,
      "stateMutability": "nonpayable",
      "type": "function"
    },
    {
      "constant": true,
      "inputs": [
        {
          "name": "_srcToken",
          "type": "address"
        },
        {
          "name": "_destToken",
          "type": "address"
        },
        {
          "name": "_srcAmmount",
          "type": "uint256"
        }
      ],
      "name": "getExchangeRate",
      "outputs": [
        {
          "name": "",
          "type": "uint256"
        }
      ],
      "payable": false,
      "stateMutability": "view",
      "type": "function"
    },
    {
      "constant": false,
      "inputs": [
        {
          "name": "_srcToken",
          "type": "address"
        },
        {
          "name": "_destToken",
          "type": "address"
        },
        {
          "name": "_srcAmmount",
          "type": "uint256"
        }
      ],
      "name": "exchangeToken",
      "outputs": [],
      "payable": true,
      "stateMutability": "payable",
      "type": "function"
    }
  ],
  "bytecode": "0x6060604052341561000f57600080fd5b336000806101000a81548173ffffffffffffffffffffffffffffffffffffffff021916908373ffffffffffffffffffffffffffffffffffffffff16021790555061141d8061005e6000396000f30060606040523615610081576000357c0100000000000000000000000000000000000000000000000000000000900463ffffffff1680636b441d8a146100835780638d337dd9146100f85780638da5cb5b1461014d5780639e3f3d48146101a2578063a734f06e1461021d578063c69fd61f14610272578063f25a104f146102eb575b005b341561008e57600080fd5b6100e2600480803573ffffffffffffffffffffffffffffffffffffffff1690602001909190803573ffffffffffffffffffffffffffffffffffffffff16906020019091908035906020019091905050610341565b6040518082815260200191505060405180910390f35b341561010357600080fd5b61010b6107fb565b604051808273ffffffffffffffffffffffffffffffffffffffff1673ffffffffffffffffffffffffffffffffffffffff16815260200191505060405180910390f35b341561015857600080fd5b610160610800565b604051808273ffffffffffffffffffffffffffffffffffffffff1673ffffffffffffffffffffffffffffffffffffffff16815260200191505060405180910390f35b34156101ad57600080fd5b610203600480803573ffffffffffffffffffffffffffffffffffffffff1690602001909190803573ffffffffffffffffffffffffffffffffffffffff169060200190919080351515906020019091905050610825565b604051808215151515815260200191505060405180910390f35b341561022857600080fd5b610230610922565b604051808273ffffffffffffffffffffffffffffffffffffffff1673ffffffffffffffffffffffffffffffffffffffff16815260200191505060405180910390f35b341561027d57600080fd5b6102a9600480803573ffffffffffffffffffffffffffffffffffffffff1690602001909190505061093a565b604051808273ffffffffffffffffffffffffffffffffffffffff1673ffffffffffffffffffffffffffffffffffffffff16815260200191505060405180910390f35b61033f600480803573ffffffffffffffffffffffffffffffffffffffff1690602001909190803573ffffffffffffffffffffffffffffffffffffffff1690602001909190803590602001909190505061096d565b005b600080600080600073eeeeeeeeeeeeeeeeeeeeeeeeeeeeeeeeeeeeeeee73ffffffffffffffffffffffffffffffffffffffff168873ffffffffffffffffffffffffffffffffffffffff16141561049957600160008873ffffffffffffffffffffffffffffffffffffffff1673ffffffffffffffffffffffffffffffffffffffff16815260200190815260200160002060009054906101000a900473ffffffffffffffffffffffffffffffffffffffff1693508373ffffffffffffffffffffffffffffffffffffffff166377ed0ad66001886000604051602001526040518363ffffffff167c0100000000000000000000000000000000000000000000000000000000028152600401808315151515815260200182815260200192505050602060405180830381600087803b151561047757600080fd5b6102c65a03f1151561048857600080fd5b5050506040518051905094506107f0565b73eeeeeeeeeeeeeeeeeeeeeeeeeeeeeeeeeeeeeeee73ffffffffffffffffffffffffffffffffffffffff168773ffffffffffffffffffffffffffffffffffffffff1614156105e957600160008973ffffffffffffffffffffffffffffffffffffffff1673ffffffffffffffffffffffffffffffffffffffff16815260200190815260200160002060009054906101000a900473ffffffffffffffffffffffffffffffffffffffff1693508373ffffffffffffffffffffffffffffffffffffffff166377ed0ad66000886000604051602001526040518363ffffffff167c0100000000000000000000000000000000000000000000000000000000028152600401808315151515815260200182815260200192505050602060405180830381600087803b15156105c757600080fd5b6102c65a03f115156105d857600080fd5b5050506040518051905094506107f0565b600160008973ffffffffffffffffffffffffffffffffffffffff1673ffffffffffffffffffffffffffffffffffffffff16815260200190815260200160002060009054906101000a900473ffffffffffffffffffffffffffffffffffffffff1692508273ffffffffffffffffffffffffffffffffffffffff166377ed0ad66000886000604051602001526040518363ffffffff167c0100000000000000000000000000000000000000000000000000000000028152600401808315151515815260200182815260200192505050602060405180830381600087803b15156106cf57600080fd5b6102c65a03f115156106e057600080fd5b505050604051805190509150600160008873ffffffffffffffffffffffffffffffffffffffff1673ffffffffffffffffffffffffffffffffffffffff16815260200190815260200160002060009054906101000a900473ffffffffffffffffffffffffffffffffffffffff1690508073ffffffffffffffffffffffffffffffffffffffff166377ed0ad66001846000604051602001526040518363ffffffff167c0100000000000000000000000000000000000000000000000000000000028152600401808315151515815260200182815260200192505050602060405180830381600087803b15156107d257600080fd5b6102c65a03f115156107e357600080fd5b5050506040518051905094505b505050509392505050565b600081565b6000809054906101000a900473ffffffffffffffffffffffffffffffffffffffff1681565b600081156108b45783600160008573ffffffffffffffffffffffffffffffffffffffff1673ffffffffffffffffffffffffffffffffffffffff16815260200190815260200160002060006101000a81548173ffffffffffffffffffffffffffffffffffffffff021916908373ffffffffffffffffffffffffffffffffffffffff1602179055506001905061091b565b600160008473ffffffffffffffffffffffffffffffffffffffff1673ffffffffffffffffffffffffffffffffffffffff16815260200190815260200160002060006101000a81549073ffffffffffffffffffffffffffffffffffffffff0219169055600190505b9392505050565b73eeeeeeeeeeeeeeeeeeeeeeeeeeeeeeeeeeeeeeee81565b60016020528060005260406000206000915054906101000a900473ffffffffffffffffffffffffffffffffffffffff1681565b60008060008060008073eeeeeeeeeeeeeeeeeeeeeeeeeeeeeeeeeeeeeeee73ffffffffffffffffffffffffffffffffffffffff168973ffffffffffffffffffffffffffffffffffffffff161415610bb85734670de0b6b3a764000088021415156109d657600080fd5b879450600160008973ffffffffffffffffffffffffffffffffffffffff1673ffffffffffffffffffffffffffffffffffffffff16815260200190815260200160002060009054906101000a900473ffffffffffffffffffffffffffffffffffffffff1692508273ffffffffffffffffffffffffffffffffffffffff1663874fc5f83460018a6040518463ffffffff167c01000000000000000000000000000000000000000000000000000000000281526004018083151515158152602001828152602001925050506000604051808303818588803b1515610ab657600080fd5b6125ee5a03f11515610ac757600080fd5b50505050610aea73eeeeeeeeeeeeeeeeeeeeeeeeeeeeeeeeeeeeeeee8989610341565b90508473ffffffffffffffffffffffffffffffffffffffff1663a9059cbb33836000604051602001526040518363ffffffff167c0100000000000000000000000000000000000000000000000000000000028152600401808373ffffffffffffffffffffffffffffffffffffffff1673ffffffffffffffffffffffffffffffffffffffff16815260200182815260200192505050602060405180830381600087803b1515610b9757600080fd5b6102c65a03f11515610ba857600080fd5b50505060405180519050506113e6565b73eeeeeeeeeeeeeeeeeeeeeeeeeeeeeeeeeeeeeeee73ffffffffffffffffffffffffffffffffffffffff168873ffffffffffffffffffffffffffffffffffffffff161415610f2657889550600160008a73ffffffffffffffffffffffffffffffffffffffff1673ffffffffffffffffffffffffffffffffffffffff16815260200190815260200160002060009054906101000a900473ffffffffffffffffffffffffffffffffffffffff1693508573ffffffffffffffffffffffffffffffffffffffff166323b872dd33308a6000604051602001526040518463ffffffff167c0100000000000000000000000000000000000000000000000000000000028152600401808473ffffffffffffffffffffffffffffffffffffffff1673ffffffffffffffffffffffffffffffffffffffff1681526020018373ffffffffffffffffffffffffffffffffffffffff1673ffffffffffffffffffffffffffffffffffffffff1681526020018281526020019350505050602060405180830381600087803b1515610d4457600080fd5b6102c65a03f11515610d5557600080fd5b50505060405180519050508573ffffffffffffffffffffffffffffffffffffffff1663095ea7b385896000604051602001526040518363ffffffff167c0100000000000000000000000000000000000000000000000000000000028152600401808373ffffffffffffffffffffffffffffffffffffffff1673ffffffffffffffffffffffffffffffffffffffff16815260200182815260200192505050602060405180830381600087803b1515610e0b57600080fd5b6102c65a03f11515610e1c57600080fd5b50505060405180519050508373ffffffffffffffffffffffffffffffffffffffff1663874fc5f86000896040518363ffffffff167c0100000000000000000000000000000000000000000000000000000000028152600401808315151515815260200182815260200192505050600060405180830381600087803b1515610ea257600080fd5b6102c65a03f11515610eb357600080fd5b505050610ed58973eeeeeeeeeeeeeeeeeeeeeeeeeeeeeeeeeeeeeeee89610341565b91503373ffffffffffffffffffffffffffffffffffffffff166108fc670de0b6b3a764000084029081150290604051600060405180830381858888f193505050501515610f2157600080fd5b6113e5565b889550600160008a73ffffffffffffffffffffffffffffffffffffffff1673ffffffffffffffffffffffffffffffffffffffff16815260200190815260200160002060009054906101000a900473ffffffffffffffffffffffffffffffffffffffff1693508573ffffffffffffffffffffffffffffffffffffffff166323b872dd33308a6000604051602001526040518463ffffffff167c0100000000000000000000000000000000000000000000000000000000028152600401808473ffffffffffffffffffffffffffffffffffffffff1673ffffffffffffffffffffffffffffffffffffffff1681526020018373ffffffffffffffffffffffffffffffffffffffff1673ffffffffffffffffffffffffffffffffffffffff1681526020018281526020019350505050602060405180830381600087803b151561106a57600080fd5b6102c65a03f1151561107b57600080fd5b50505060405180519050508573ffffffffffffffffffffffffffffffffffffffff1663095ea7b385896000604051602001526040518363ffffffff167c0100000000000000000000000000000000000000000000000000000000028152600401808373ffffffffffffffffffffffffffffffffffffffff1673ffffffffffffffffffffffffffffffffffffffff16815260200182815260200192505050602060405180830381600087803b151561113157600080fd5b6102c65a03f1151561114257600080fd5b50505060405180519050508373ffffffffffffffffffffffffffffffffffffffff1663874fc5f86000896040518363ffffffff167c0100000000000000000000000000000000000000000000000000000000028152600401808315151515815260200182815260200192505050600060405180830381600087803b15156111c857600080fd5b6102c65a03f115156111d957600080fd5b5050506111fb8973eeeeeeeeeeeeeeeeeeeeeeeeeeeeeeeeeeeeeeee89610341565b9150879450600160008973ffffffffffffffffffffffffffffffffffffffff1673ffffffffffffffffffffffffffffffffffffffff16815260200190815260200160002060009054906101000a900473ffffffffffffffffffffffffffffffffffffffff1692508273ffffffffffffffffffffffffffffffffffffffff1663874fc5f8670de0b6b3a764000084026001856040518463ffffffff167c01000000000000000000000000000000000000000000000000000000000281526004018083151515158152602001828152602001925050506000604051808303818588803b15156112e757600080fd5b6125ee5a03f115156112f857600080fd5b5050505061131b73eeeeeeeeeeeeeeeeeeeeeeeeeeeeeeeeeeeeeeee8984610341565b90508473ffffffffffffffffffffffffffffffffffffffff1663a9059cbb33836000604051602001526040518363ffffffff167c0100000000000000000000000000000000000000000000000000000000028152600401808373ffffffffffffffffffffffffffffffffffffffff1673ffffffffffffffffffffffffffffffffffffffff16815260200182815260200192505050602060405180830381600087803b15156113c857600080fd5b6102c65a03f115156113d957600080fd5b50505060405180519050505b5b5050505050505050505600a165627a7a723058201c5837e23c143ccca7e5281a64a3f37a5b03e33b85967d4600516cecec800c960029",
  "source": "pragma solidity 0.4.17;\r\n\r\nimport \"./Reserve.sol\";\r\nimport {TestToken} from \"./TestToken.sol\";\r\n\r\ncontract Exchange {\r\n    \r\n    address public owner;\r\n    address public constant ETH_ADDRESS = 0xeeeeeeeeeeeeeeeeeeeeeeeeeeeeeeeeeeeeeeee;\r\n    address public constant DEFAULT_ADDRESS = 0x0000000000000000000000000000000000000000;\r\n    mapping(address => address) public listReserve; \r\n    \r\n    function Exchange() public {\r\n        owner = msg.sender;\r\n    }\r\n    \r\n    function addReserve(address _reserve, address _token, bool _isAdd) public returns(bool){\r\n        if(_isAdd) {\r\n            // Reserve reserve = Reserve(_reserve);\r\n            // if (reserve.supportToken() != _token){\r\n            //     return false;\r\n            // }\r\n            listReserve[_token] = _reserve;\r\n            return true;\r\n        }else {\r\n            delete listReserve[_token];\r\n            return true;\r\n        }\r\n        \r\n    }\r\n    \r\n    function getExchangeRate(address _srcToken, address _destToken, uint _srcAmmount) public view returns(uint){\r\n        //if _srcToken = ETH => buy token\r\n        if(_srcToken == ETH_ADDRESS){\r\n            Reserve re = Reserve(listReserve[_destToken]);\r\n            return re.getExchangeRate(true, _srcAmmount);\r\n        }\r\n        //else if _destToken = ETH => sell token\r\n        else if ( _destToken == ETH_ADDRESS){\r\n            re = Reserve(listReserve[_srcToken]);\r\n            return re.getExchangeRate(false, _srcAmmount);\r\n        }\r\n        //else exchange token to token\r\n        else {\r\n            Reserve reSrc = Reserve(listReserve[_srcToken]);\r\n            uint ethRecieved = reSrc.getExchangeRate(false, _srcAmmount);\r\n            Reserve reDest = Reserve(listReserve[_destToken]);\r\n            return reDest.getExchangeRate(true, ethRecieved);\r\n        }\r\n    }\r\n\r\n    function() public payable {\r\n    }\r\n    \r\n    function exchangeToken(address _srcToken, address _destToken, uint _srcAmmount) public payable{\r\n        \r\n        TestToken srcTokenContract;\r\n        TestToken destTokenContract;\r\n        Reserve srcReserve;\r\n        Reserve destReserve;\r\n        uint ethRecieved;\r\n        uint tokenReceived;\r\n        \r\n          //if _srcToken = ETH => buy token\r\n          \r\n        if(_srcToken == ETH_ADDRESS){\r\n            \r\n            require((_srcAmmount * 10**18) == msg.value);\r\n            destTokenContract = TestToken(_destToken);\r\n            destReserve = Reserve(listReserve[_destToken]);\r\n            destReserve.exchange.value(msg.value)(true, _srcAmmount);\r\n            tokenReceived = getExchangeRate(ETH_ADDRESS, _destToken, _srcAmmount);\r\n            destTokenContract.transfer(msg.sender, tokenReceived);\r\n            \r\n        } else if ( _destToken == ETH_ADDRESS){ //else if _destToken = ETH => sell token\r\n        \r\n            srcTokenContract = TestToken(_srcToken);\r\n            srcReserve = Reserve(listReserve[_srcToken]);\r\n            \r\n            srcTokenContract.transferFrom(msg.sender, address(this), _srcAmmount);\r\n            srcTokenContract.approve(address(srcReserve), _srcAmmount);\r\n\r\n            srcReserve.exchange(false, _srcAmmount);\r\n            ethRecieved = getExchangeRate(_srcToken, ETH_ADDRESS, _srcAmmount);\r\n            (msg.sender).transfer(ethRecieved * 10**18);\r\n            \r\n        }else { //else exchange token to token\r\n            //sell token\r\n            srcTokenContract = TestToken(_srcToken);\r\n            srcReserve = Reserve(listReserve[_srcToken]);\r\n            // uint approvedAllowence = srcTokenContract.allowance(msg.sender, this);\r\n            // require(approvedAllowence ==  _srcAmmount);\r\n            srcTokenContract.transferFrom(msg.sender, this, _srcAmmount);//  transfer directly to reserve contract\r\n            srcTokenContract.approve(address(srcReserve), _srcAmmount);\r\n            srcReserve.exchange(false, _srcAmmount);\r\n            ethRecieved = getExchangeRate(_srcToken, ETH_ADDRESS, _srcAmmount);\r\n            \r\n            //buy token\r\n            destTokenContract = TestToken(_destToken);\r\n            destReserve = Reserve(listReserve[_destToken]);\r\n            destReserve.exchange.value(ethRecieved * 10**18)(true, ethRecieved);\r\n            tokenReceived = getExchangeRate(ETH_ADDRESS, _destToken, ethRecieved);\r\n            destTokenContract.transfer(msg.sender, tokenReceived);\r\n            \r\n        }\r\n    }\r\n    \r\n}\r\n",
  "sourcePath": "C:\\Users\\My PC\\Desktop\\TestCAP\\contracts\\Exchange.sol",
  "compiler": {
    "name": "solc",
    "version": "0.4.17+commit.bdeb9e52.Emscripten.clang"
  },
  "schemaVersion": "3.1.0",
  "updatedAt": "2020-07-02T05:29:42.998Z",
  "networkType": "ethereum",
  "devdoc": {
    "methods": {}
  },
  "userdoc": {
    "methods": {}
  }
}