{
  "contractName": "Exchange",
  "abi": [
    {
      "constant": true,
      "inputs": [],
      "name": "DEFAULT_ADDRESS",
      "outputs": [
        {
          "name": "",
          "type": "address"
        }
      ],
      "payable": false,
      "stateMutability": "view",
      "type": "function"
    },
    {
      "constant": true,
      "inputs": [],
      "name": "owner",
      "outputs": [
        {
          "name": "",
          "type": "address"
        }
      ],
      "payable": false,
      "stateMutability": "view",
      "type": "function"
    },
    {
      "constant": true,
      "inputs": [],
      "name": "ETH_ADDRESS",
      "outputs": [
        {
          "name": "",
          "type": "address"
        }
      ],
      "payable": false,
      "stateMutability": "view",
      "type": "function"
    },
    {
      "inputs": [],
      "payable": false,
      "stateMutability": "nonpayable",
      "type": "constructor"
    },
    {
      "constant": false,
      "inputs": [
        {
          "name": "_reserve",
          "type": "address"
        },
        {
          "name": "_token",
          "type": "address"
        },
        {
          "name": "_isAdd",
          "type": "bool"
        }
      ],
      "name": "addReserve",
      "outputs": [
        {
          "name": "",
          "type": "bool"
        }
      ],
      "payable": false,
      "stateMutability": "nonpayable",
      "type": "function"
    },
    {
      "constant": false,
      "inputs": [
        {
          "name": "_srcToken",
          "type": "address"
        },
        {
          "name": "_destToken",
          "type": "address"
        },
        {
          "name": "_srcAmmount",
          "type": "uint256"
        }
      ],
      "name": "getExchangeRate",
      "outputs": [
        {
          "name": "",
          "type": "uint256"
        }
      ],
      "payable": false,
      "stateMutability": "nonpayable",
      "type": "function"
    },
    {
      "constant": false,
      "inputs": [
        {
          "name": "_srcToken",
          "type": "address"
        },
        {
          "name": "_destToken",
          "type": "address"
        },
        {
          "name": "_srcAmmount",
          "type": "uint256"
        }
      ],
      "name": "exchangeToken",
      "outputs": [],
      "payable": true,
      "stateMutability": "payable",
      "type": "function"
    }
  ],
  "bytecode": "0x6060604052341561000f57600080fd5b336000806101000a81548173ffffffffffffffffffffffffffffffffffffffff021916908373ffffffffffffffffffffffffffffffffffffffff1602179055506114648061005e6000396000f30060606040523615610076576000357c0100000000000000000000000000000000000000000000000000000000900463ffffffff1680636b441d8a1461007b5780638d337dd9146100f05780638da5cb5b146101455780639e3f3d481461019a578063a734f06e14610215578063f25a104f1461026a575b600080fd5b341561008657600080fd5b6100da600480803573ffffffffffffffffffffffffffffffffffffffff1690602001909190803573ffffffffffffffffffffffffffffffffffffffff169060200190919080359060200190919050506102c0565b6040518082815260200191505060405180910390f35b34156100fb57600080fd5b61010361077a565b604051808273ffffffffffffffffffffffffffffffffffffffff1673ffffffffffffffffffffffffffffffffffffffff16815260200191505060405180910390f35b341561015057600080fd5b61015861077f565b604051808273ffffffffffffffffffffffffffffffffffffffff1673ffffffffffffffffffffffffffffffffffffffff16815260200191505060405180910390f35b34156101a557600080fd5b6101fb600480803573ffffffffffffffffffffffffffffffffffffffff1690602001909190803573ffffffffffffffffffffffffffffffffffffffff1690602001909190803515159060200190919050506107a4565b604051808215151515815260200191505060405180910390f35b341561022057600080fd5b6102286108a1565b604051808273ffffffffffffffffffffffffffffffffffffffff1673ffffffffffffffffffffffffffffffffffffffff16815260200191505060405180910390f35b6102be600480803573ffffffffffffffffffffffffffffffffffffffff1690602001909190803573ffffffffffffffffffffffffffffffffffffffff169060200190919080359060200190919050506108b9565b005b600080600080600073eeeeeeeeeeeeeeeeeeeeeeeeeeeeeeeeeeeeeeee73ffffffffffffffffffffffffffffffffffffffff168873ffffffffffffffffffffffffffffffffffffffff16141561041857600260008873ffffffffffffffffffffffffffffffffffffffff1673ffffffffffffffffffffffffffffffffffffffff16815260200190815260200160002060009054906101000a900473ffffffffffffffffffffffffffffffffffffffff1693508373ffffffffffffffffffffffffffffffffffffffff166377ed0ad66001886000604051602001526040518363ffffffff167c0100000000000000000000000000000000000000000000000000000000028152600401808315151515815260200182815260200192505050602060405180830381600087803b15156103f657600080fd5b6102c65a03f1151561040757600080fd5b50505060405180519050945061076f565b73eeeeeeeeeeeeeeeeeeeeeeeeeeeeeeeeeeeeeeee73ffffffffffffffffffffffffffffffffffffffff168773ffffffffffffffffffffffffffffffffffffffff16141561056857600260008973ffffffffffffffffffffffffffffffffffffffff1673ffffffffffffffffffffffffffffffffffffffff16815260200190815260200160002060009054906101000a900473ffffffffffffffffffffffffffffffffffffffff1693508373ffffffffffffffffffffffffffffffffffffffff166377ed0ad66000886000604051602001526040518363ffffffff167c0100000000000000000000000000000000000000000000000000000000028152600401808315151515815260200182815260200192505050602060405180830381600087803b151561054657600080fd5b6102c65a03f1151561055757600080fd5b50505060405180519050945061076f565b600260008973ffffffffffffffffffffffffffffffffffffffff1673ffffffffffffffffffffffffffffffffffffffff16815260200190815260200160002060009054906101000a900473ffffffffffffffffffffffffffffffffffffffff1692508273ffffffffffffffffffffffffffffffffffffffff166377ed0ad66000886000604051602001526040518363ffffffff167c0100000000000000000000000000000000000000000000000000000000028152600401808315151515815260200182815260200192505050602060405180830381600087803b151561064e57600080fd5b6102c65a03f1151561065f57600080fd5b505050604051805190509150600260008873ffffffffffffffffffffffffffffffffffffffff1673ffffffffffffffffffffffffffffffffffffffff16815260200190815260200160002060009054906101000a900473ffffffffffffffffffffffffffffffffffffffff1690508073ffffffffffffffffffffffffffffffffffffffff166377ed0ad66001846000604051602001526040518363ffffffff167c0100000000000000000000000000000000000000000000000000000000028152600401808315151515815260200182815260200192505050602060405180830381600087803b151561075157600080fd5b6102c65a03f1151561076257600080fd5b5050506040518051905094505b505050509392505050565b600081565b6000809054906101000a900473ffffffffffffffffffffffffffffffffffffffff1681565b600081156108335783600260008573ffffffffffffffffffffffffffffffffffffffff1673ffffffffffffffffffffffffffffffffffffffff16815260200190815260200160002060006101000a81548173ffffffffffffffffffffffffffffffffffffffff021916908373ffffffffffffffffffffffffffffffffffffffff1602179055506001905061089a565b600260008473ffffffffffffffffffffffffffffffffffffffff1673ffffffffffffffffffffffffffffffffffffffff16815260200190815260200160002060006101000a81549073ffffffffffffffffffffffffffffffffffffffff0219169055600190505b9392505050565b73eeeeeeeeeeeeeeeeeeeeeeeeeeeeeeeeeeeeeeee81565b600080600080600080600073eeeeeeeeeeeeeeeeeeeeeeeeeeeeeeeeeeeeeeee73ffffffffffffffffffffffffffffffffffffffff168a73ffffffffffffffffffffffffffffffffffffffff161415610b065734670de0b6b3a7640000890214151561092457600080fd5b889550600260008a73ffffffffffffffffffffffffffffffffffffffff1673ffffffffffffffffffffffffffffffffffffffff16815260200190815260200160002060009054906101000a900473ffffffffffffffffffffffffffffffffffffffff1693508373ffffffffffffffffffffffffffffffffffffffff1663874fc5f83460018b6040518463ffffffff167c01000000000000000000000000000000000000000000000000000000000281526004018083151515158152602001828152602001925050506000604051808303818588803b1515610a0457600080fd5b6125ee5a03f11515610a1557600080fd5b50505050610a3873eeeeeeeeeeeeeeeeeeeeeeeeeeeeeeeeeeeeeeee8a8a6102c0565b91508573ffffffffffffffffffffffffffffffffffffffff1663a9059cbb33846000604051602001526040518363ffffffff167c0100000000000000000000000000000000000000000000000000000000028152600401808373ffffffffffffffffffffffffffffffffffffffff1673ffffffffffffffffffffffffffffffffffffffff16815260200182815260200192505050602060405180830381600087803b1515610ae557600080fd5b6102c65a03f11515610af657600080fd5b505050604051805190505061142c565b73eeeeeeeeeeeeeeeeeeeeeeeeeeeeeeeeeeeeeeee73ffffffffffffffffffffffffffffffffffffffff168973ffffffffffffffffffffffffffffffffffffffff161415610e7457899650600260008b73ffffffffffffffffffffffffffffffffffffffff1673ffffffffffffffffffffffffffffffffffffffff16815260200190815260200160002060009054906101000a900473ffffffffffffffffffffffffffffffffffffffff1694508673ffffffffffffffffffffffffffffffffffffffff166323b872dd33308b6000604051602001526040518463ffffffff167c0100000000000000000000000000000000000000000000000000000000028152600401808473ffffffffffffffffffffffffffffffffffffffff1673ffffffffffffffffffffffffffffffffffffffff1681526020018373ffffffffffffffffffffffffffffffffffffffff1673ffffffffffffffffffffffffffffffffffffffff1681526020018281526020019350505050602060405180830381600087803b1515610c9257600080fd5b6102c65a03f11515610ca357600080fd5b50505060405180519050508673ffffffffffffffffffffffffffffffffffffffff1663095ea7b3868a6000604051602001526040518363ffffffff167c0100000000000000000000000000000000000000000000000000000000028152600401808373ffffffffffffffffffffffffffffffffffffffff1673ffffffffffffffffffffffffffffffffffffffff16815260200182815260200192505050602060405180830381600087803b1515610d5957600080fd5b6102c65a03f11515610d6a57600080fd5b50505060405180519050508473ffffffffffffffffffffffffffffffffffffffff1663874fc5f860008a6040518363ffffffff167c0100000000000000000000000000000000000000000000000000000000028152600401808315151515815260200182815260200192505050600060405180830381600087803b1515610df057600080fd5b6102c65a03f11515610e0157600080fd5b505050610e238a73eeeeeeeeeeeeeeeeeeeeeeeeeeeeeeeeeeeeeeee8a6102c0565b92503373ffffffffffffffffffffffffffffffffffffffff166108fc670de0b6b3a764000085029081150290604051600060405180830381858888f193505050501515610e6f57600080fd5b61142b565b899650600260008b73ffffffffffffffffffffffffffffffffffffffff1673ffffffffffffffffffffffffffffffffffffffff16815260200190815260200160002060009054906101000a900473ffffffffffffffffffffffffffffffffffffffff1694508673ffffffffffffffffffffffffffffffffffffffff1663dd62ed3e33306000604051602001526040518363ffffffff167c0100000000000000000000000000000000000000000000000000000000028152600401808373ffffffffffffffffffffffffffffffffffffffff1673ffffffffffffffffffffffffffffffffffffffff1681526020018273ffffffffffffffffffffffffffffffffffffffff1673ffffffffffffffffffffffffffffffffffffffff16815260200192505050602060405180830381600087803b1515610fb057600080fd5b6102c65a03f11515610fc157600080fd5b5050506040518051905090508781141515610fdb57600080fd5b8673ffffffffffffffffffffffffffffffffffffffff166323b872dd33308b6000604051602001526040518463ffffffff167c0100000000000000000000000000000000000000000000000000000000028152600401808473ffffffffffffffffffffffffffffffffffffffff1673ffffffffffffffffffffffffffffffffffffffff1681526020018373ffffffffffffffffffffffffffffffffffffffff1673ffffffffffffffffffffffffffffffffffffffff1681526020018281526020019350505050602060405180830381600087803b15156110ba57600080fd5b6102c65a03f115156110cb57600080fd5b50505060405180519050508673ffffffffffffffffffffffffffffffffffffffff1663095ea7b3868a6000604051602001526040518363ffffffff167c0100000000000000000000000000000000000000000000000000000000028152600401808373ffffffffffffffffffffffffffffffffffffffff1673ffffffffffffffffffffffffffffffffffffffff16815260200182815260200192505050602060405180830381600087803b151561118157600080fd5b6102c65a03f1151561119257600080fd5b50505060405180519050508473ffffffffffffffffffffffffffffffffffffffff1663874fc5f860008a6040518363ffffffff167c0100000000000000000000000000000000000000000000000000000000028152600401808315151515815260200182815260200192505050600060405180830381600087803b151561121857600080fd5b6102c65a03f1151561122957600080fd5b50505061124b8a73eeeeeeeeeeeeeeeeeeeeeeeeeeeeeeeeeeeeeeee8a6102c0565b9250889550600260008a73ffffffffffffffffffffffffffffffffffffffff1673ffffffffffffffffffffffffffffffffffffffff16815260200190815260200160002060009054906101000a900473ffffffffffffffffffffffffffffffffffffffff1693508373ffffffffffffffffffffffffffffffffffffffff1663874fc5f8846001866040518463ffffffff167c01000000000000000000000000000000000000000000000000000000000281526004018083151515158152602001828152602001925050506000604051808303818588803b151561132d57600080fd5b6125ee5a03f1151561133e57600080fd5b5050505061136173eeeeeeeeeeeeeeeeeeeeeeeeeeeeeeeeeeeeeeee8a856102c0565b91508573ffffffffffffffffffffffffffffffffffffffff1663a9059cbb33846000604051602001526040518363ffffffff167c0100000000000000000000000000000000000000000000000000000000028152600401808373ffffffffffffffffffffffffffffffffffffffff1673ffffffffffffffffffffffffffffffffffffffff16815260200182815260200192505050602060405180830381600087803b151561140e57600080fd5b6102c65a03f1151561141f57600080fd5b50505060405180519050505b5b505050505050505050505600a165627a7a72305820e067629c067efd9a851c37e55a346a1d7e866a7cc44b59c8f05742453a2c895e0029",
  "source": "pragma solidity 0.4.17;\n\nimport \"./Reserve.sol\";\nimport {TestToken} from \"./TestToken.sol\";\n\ncontract Exchange {\n    \n    address public owner;\n    address public constant ETH_ADDRESS = 0xeeeeeeeeeeeeeeeeeeeeeeeeeeeeeeeeeeeeeeee;\n    address public constant DEFAULT_ADDRESS = 0x0000000000000000000000000000000000000000;\n    mapping(address => uint) spendingReturn;\n    mapping(address => address) listReserve; \n    \n    function Exchange() public {\n        owner = msg.sender;\n    }\n    \n    function addReserve(address _reserve, address _token, bool _isAdd) public returns(bool){\n        if(_isAdd) {\n            // Reserve reserve = Reserve(_reserve);\n            // if (reserve.supportToken() != _token){\n            //     return false;\n            // }\n            listReserve[_token] = _reserve;\n            return true;\n        }else {\n            delete listReserve[_token];\n            return true;\n        }\n        \n    }\n    \n    function getExchangeRate(address _srcToken, address _destToken, uint _srcAmmount) public returns(uint){\n        //if _srcToken = ETH => buy token\n        if(_srcToken == ETH_ADDRESS){\n            Reserve re = Reserve(listReserve[_destToken]);\n            return re.getExchangeRate(true, _srcAmmount);\n        }\n        //else if _destToken = ETH => sell token\n        else if ( _destToken == ETH_ADDRESS){\n            re = Reserve(listReserve[_srcToken]);\n            return re.getExchangeRate(false, _srcAmmount);\n        }\n        //else exchange token to token\n        else {\n            Reserve reSrc = Reserve(listReserve[_srcToken]);\n            uint ethRecieved = reSrc.getExchangeRate(false, _srcAmmount);\n            Reserve reDest = Reserve(listReserve[_destToken]);\n            return reDest.getExchangeRate(true, ethRecieved);\n        }\n    }\n    \n    function exchangeToken(address _srcToken, address _destToken, uint _srcAmmount) public payable{\n        \n        TestToken srcTokenContract;\n        TestToken destTokenContract;\n        Reserve srcReserve;\n        Reserve destReserve;\n        uint ethRecieved;\n        uint tokenReceived;\n        \n          //if _srcToken = ETH => buy token\n          \n        if(_srcToken == ETH_ADDRESS){\n            \n            require((_srcAmmount * 10**18) == msg.value);\n            destTokenContract = TestToken(_destToken);\n            destReserve = Reserve(listReserve[_destToken]);\n            destReserve.exchange.value(msg.value)(true, _srcAmmount);\n            tokenReceived = getExchangeRate(ETH_ADDRESS, _destToken, _srcAmmount);\n            destTokenContract.transfer(msg.sender, tokenReceived);\n            \n        } else if ( _destToken == ETH_ADDRESS){ //else if _destToken = ETH => sell token\n        \n            srcTokenContract = TestToken(_srcToken);\n            srcReserve = Reserve(listReserve[_srcToken]);\n            \n            srcTokenContract.transferFrom(msg.sender, this, _srcAmmount);\n            srcTokenContract.approve(address(srcReserve), _srcAmmount);\n            srcReserve.exchange(false, _srcAmmount);\n            ethRecieved = getExchangeRate(_srcToken, ETH_ADDRESS, _srcAmmount);\n            (msg.sender).transfer(ethRecieved * 10**18);\n            \n        }else { //else exchange token to token\n            //sell token\n            srcTokenContract = TestToken(_srcToken);\n            srcReserve = Reserve(listReserve[_srcToken]);\n            uint approvedAllowence = srcTokenContract.allowance(msg.sender, this);\n            require(approvedAllowence ==  _srcAmmount);\n            srcTokenContract.transferFrom(msg.sender, this, _srcAmmount);//  transfer directly to reserve contract\n            srcTokenContract.approve(address(srcReserve), _srcAmmount);\n            srcReserve.exchange(false, _srcAmmount);\n            ethRecieved = getExchangeRate(_srcToken, ETH_ADDRESS, _srcAmmount);\n            \n            //buy token\n            destTokenContract = TestToken(_destToken);\n            destReserve = Reserve(listReserve[_destToken]);\n            destReserve.exchange.value(ethRecieved)(true, ethRecieved);\n            tokenReceived = getExchangeRate(ETH_ADDRESS, _destToken, ethRecieved);\n            destTokenContract.transfer(msg.sender, tokenReceived);\n            \n        }\n    }\n    \n}\n",
  "sourcePath": "C:\\Users\\My PC\\Desktop\\TestCAP\\contracts\\Exchange.sol",
  "compiler": {
    "name": "solc",
    "version": "0.4.17+commit.bdeb9e52.Emscripten.clang"
  },
  "schemaVersion": "3.1.0",
  "updatedAt": "2020-06-22T08:31:18.268Z",
  "networkType": "ethereum",
  "devdoc": {
    "methods": {}
  },
  "userdoc": {
    "methods": {}
  }
}