{
  "contractName": "Exchange",
  "abi": [
    {
      "constant": true,
      "inputs": [],
      "name": "trade",
      "outputs": [
        {
          "name": "",
          "type": "bool"
        }
      ],
      "payable": false,
      "stateMutability": "view",
      "type": "function"
    },
    {
      "constant": true,
      "inputs": [],
      "name": "DEFAULT_ADDRESS",
      "outputs": [
        {
          "name": "",
          "type": "address"
        }
      ],
      "payable": false,
      "stateMutability": "view",
      "type": "function"
    },
    {
      "constant": true,
      "inputs": [],
      "name": "owner",
      "outputs": [
        {
          "name": "",
          "type": "address"
        }
      ],
      "payable": false,
      "stateMutability": "view",
      "type": "function"
    },
    {
      "constant": true,
      "inputs": [],
      "name": "ETH_ADDRESS",
      "outputs": [
        {
          "name": "",
          "type": "address"
        }
      ],
      "payable": false,
      "stateMutability": "view",
      "type": "function"
    },
    {
      "constant": true,
      "inputs": [
        {
          "name": "",
          "type": "address"
        }
      ],
      "name": "listReserve",
      "outputs": [
        {
          "name": "",
          "type": "address"
        }
      ],
      "payable": false,
      "stateMutability": "view",
      "type": "function"
    },
    {
      "inputs": [],
      "payable": false,
      "stateMutability": "nonpayable",
      "type": "constructor"
    },
    {
      "payable": true,
      "stateMutability": "payable",
      "type": "fallback"
    },
    {
      "constant": false,
      "inputs": [
        {
          "name": "_reserve",
          "type": "address"
        },
        {
          "name": "_token",
          "type": "address"
        },
        {
          "name": "_isAdd",
          "type": "bool"
        }
      ],
      "name": "addReserve",
      "outputs": [
        {
          "name": "",
          "type": "bool"
        }
      ],
      "payable": false,
      "stateMutability": "nonpayable",
      "type": "function"
    },
    {
      "constant": true,
      "inputs": [
        {
          "name": "_srcToken",
          "type": "address"
        },
        {
          "name": "_destToken",
          "type": "address"
        },
        {
          "name": "_srcAmmount",
          "type": "uint256"
        }
      ],
      "name": "getExchangeRate",
      "outputs": [
        {
          "name": "",
          "type": "uint256"
        }
      ],
      "payable": false,
      "stateMutability": "view",
      "type": "function"
    },
    {
      "constant": false,
      "inputs": [
        {
          "name": "_srcToken",
          "type": "address"
        },
        {
          "name": "_destToken",
          "type": "address"
        },
        {
          "name": "_srcAmmount",
          "type": "uint256"
        }
      ],
      "name": "exchangeToken",
      "outputs": [],
      "payable": true,
      "stateMutability": "payable",
      "type": "function"
    },
    {
      "constant": false,
      "inputs": [
        {
          "name": "_flag",
          "type": "bool"
        }
      ],
      "name": "setTradable",
      "outputs": [],
      "payable": false,
      "stateMutability": "nonpayable",
      "type": "function"
    }
  ],
  "bytecode": "0x60606040526001600260006101000a81548160ff021916908315150217905550341561002a57600080fd5b336000806101000a81548173ffffffffffffffffffffffffffffffffffffffff021916908373ffffffffffffffffffffffffffffffffffffffff16021790555061156f806100796000396000f30060606040523615610097576000357c0100000000000000000000000000000000000000000000000000000000900463ffffffff1680631f0ba6c9146100995780636b441d8a146100c65780637cd505771461013b5780638d337dd9146101605780638da5cb5b146101b55780639e3f3d481461020a578063a734f06e14610285578063c69fd61f146102da578063f25a104f14610353575b005b34156100a457600080fd5b6100ac6103a9565b604051808215151515815260200191505060405180910390f35b34156100d157600080fd5b610125600480803573ffffffffffffffffffffffffffffffffffffffff1690602001909190803573ffffffffffffffffffffffffffffffffffffffff169060200190919080359060200190919050506103bc565b6040518082815260200191505060405180910390f35b341561014657600080fd5b61015e60048080351515906020019091905050610876565b005b341561016b57600080fd5b6101736108ee565b604051808273ffffffffffffffffffffffffffffffffffffffff1673ffffffffffffffffffffffffffffffffffffffff16815260200191505060405180910390f35b34156101c057600080fd5b6101c86108f3565b604051808273ffffffffffffffffffffffffffffffffffffffff1673ffffffffffffffffffffffffffffffffffffffff16815260200191505060405180910390f35b341561021557600080fd5b61026b600480803573ffffffffffffffffffffffffffffffffffffffff1690602001909190803573ffffffffffffffffffffffffffffffffffffffff169060200190919080351515906020019091905050610918565b604051808215151515815260200191505060405180910390f35b341561029057600080fd5b610298610a70565b604051808273ffffffffffffffffffffffffffffffffffffffff1673ffffffffffffffffffffffffffffffffffffffff16815260200191505060405180910390f35b34156102e557600080fd5b610311600480803573ffffffffffffffffffffffffffffffffffffffff16906020019091905050610a88565b604051808273ffffffffffffffffffffffffffffffffffffffff1673ffffffffffffffffffffffffffffffffffffffff16815260200191505060405180910390f35b6103a7600480803573ffffffffffffffffffffffffffffffffffffffff1690602001909190803573ffffffffffffffffffffffffffffffffffffffff16906020019091908035906020019091905050610abb565b005b600260009054906101000a900460ff1681565b600080600080600073eeeeeeeeeeeeeeeeeeeeeeeeeeeeeeeeeeeeeeee73ffffffffffffffffffffffffffffffffffffffff168873ffffffffffffffffffffffffffffffffffffffff16141561051457600160008873ffffffffffffffffffffffffffffffffffffffff1673ffffffffffffffffffffffffffffffffffffffff16815260200190815260200160002060009054906101000a900473ffffffffffffffffffffffffffffffffffffffff1693508373ffffffffffffffffffffffffffffffffffffffff166377ed0ad66001886000604051602001526040518363ffffffff167c0100000000000000000000000000000000000000000000000000000000028152600401808315151515815260200182815260200192505050602060405180830381600087803b15156104f257600080fd5b6102c65a03f1151561050357600080fd5b50505060405180519050945061086b565b73eeeeeeeeeeeeeeeeeeeeeeeeeeeeeeeeeeeeeeee73ffffffffffffffffffffffffffffffffffffffff168773ffffffffffffffffffffffffffffffffffffffff16141561066457600160008973ffffffffffffffffffffffffffffffffffffffff1673ffffffffffffffffffffffffffffffffffffffff16815260200190815260200160002060009054906101000a900473ffffffffffffffffffffffffffffffffffffffff1693508373ffffffffffffffffffffffffffffffffffffffff166377ed0ad66000886000604051602001526040518363ffffffff167c0100000000000000000000000000000000000000000000000000000000028152600401808315151515815260200182815260200192505050602060405180830381600087803b151561064257600080fd5b6102c65a03f1151561065357600080fd5b50505060405180519050945061086b565b600160008973ffffffffffffffffffffffffffffffffffffffff1673ffffffffffffffffffffffffffffffffffffffff16815260200190815260200160002060009054906101000a900473ffffffffffffffffffffffffffffffffffffffff1692508273ffffffffffffffffffffffffffffffffffffffff166377ed0ad66000886000604051602001526040518363ffffffff167c0100000000000000000000000000000000000000000000000000000000028152600401808315151515815260200182815260200192505050602060405180830381600087803b151561074a57600080fd5b6102c65a03f1151561075b57600080fd5b505050604051805190509150600160008873ffffffffffffffffffffffffffffffffffffffff1673ffffffffffffffffffffffffffffffffffffffff16815260200190815260200160002060009054906101000a900473ffffffffffffffffffffffffffffffffffffffff1690508073ffffffffffffffffffffffffffffffffffffffff166377ed0ad66001846000604051602001526040518363ffffffff167c0100000000000000000000000000000000000000000000000000000000028152600401808315151515815260200182815260200192505050602060405180830381600087803b151561084d57600080fd5b6102c65a03f1151561085e57600080fd5b5050506040518051905094505b505050509392505050565b6000809054906101000a900473ffffffffffffffffffffffffffffffffffffffff1673ffffffffffffffffffffffffffffffffffffffff163373ffffffffffffffffffffffffffffffffffffffff161415156108d157600080fd5b80600260006101000a81548160ff02191690831515021790555050565b600081565b6000809054906101000a900473ffffffffffffffffffffffffffffffffffffffff1681565b60008060009054906101000a900473ffffffffffffffffffffffffffffffffffffffff1673ffffffffffffffffffffffffffffffffffffffff163373ffffffffffffffffffffffffffffffffffffffff1614151561097557600080fd5b8115610a025783600160008573ffffffffffffffffffffffffffffffffffffffff1673ffffffffffffffffffffffffffffffffffffffff16815260200190815260200160002060006101000a81548173ffffffffffffffffffffffffffffffffffffffff021916908373ffffffffffffffffffffffffffffffffffffffff16021790555060019050610a69565b600160008473ffffffffffffffffffffffffffffffffffffffff1673ffffffffffffffffffffffffffffffffffffffff16815260200190815260200160002060006101000a81549073ffffffffffffffffffffffffffffffffffffffff0219169055600190505b9392505050565b73eeeeeeeeeeeeeeeeeeeeeeeeeeeeeeeeeeeeeeee81565b60016020528060005260406000206000915054906101000a900473ffffffffffffffffffffffffffffffffffffffff1681565b60008060008060008060011515600260009054906101000a900460ff161515141515610ae657600080fd5b73eeeeeeeeeeeeeeeeeeeeeeeeeeeeeeeeeeeeeeee73ffffffffffffffffffffffffffffffffffffffff168973ffffffffffffffffffffffffffffffffffffffff161415610d1e573487141515610b3c57600080fd5b879450600160008973ffffffffffffffffffffffffffffffffffffffff1673ffffffffffffffffffffffffffffffffffffffff16815260200190815260200160002060009054906101000a900473ffffffffffffffffffffffffffffffffffffffff1692508273ffffffffffffffffffffffffffffffffffffffff1663874fc5f83460018a6040518463ffffffff167c01000000000000000000000000000000000000000000000000000000000281526004018083151515158152602001828152602001925050506000604051808303818588803b1515610c1c57600080fd5b6125ee5a03f11515610c2d57600080fd5b50505050610c5073eeeeeeeeeeeeeeeeeeeeeeeeeeeeeeeeeeeeeeee89896103bc565b90508473ffffffffffffffffffffffffffffffffffffffff1663a9059cbb33836000604051602001526040518363ffffffff167c0100000000000000000000000000000000000000000000000000000000028152600401808373ffffffffffffffffffffffffffffffffffffffff1673ffffffffffffffffffffffffffffffffffffffff16815260200182815260200192505050602060405180830381600087803b1515610cfd57600080fd5b6102c65a03f11515610d0e57600080fd5b5050506040518051905050611538565b73eeeeeeeeeeeeeeeeeeeeeeeeeeeeeeeeeeeeeeee73ffffffffffffffffffffffffffffffffffffffff168873ffffffffffffffffffffffffffffffffffffffff16141561108257889550600160008a73ffffffffffffffffffffffffffffffffffffffff1673ffffffffffffffffffffffffffffffffffffffff16815260200190815260200160002060009054906101000a900473ffffffffffffffffffffffffffffffffffffffff1693508573ffffffffffffffffffffffffffffffffffffffff166323b872dd33308a6000604051602001526040518463ffffffff167c0100000000000000000000000000000000000000000000000000000000028152600401808473ffffffffffffffffffffffffffffffffffffffff1673ffffffffffffffffffffffffffffffffffffffff1681526020018373ffffffffffffffffffffffffffffffffffffffff1673ffffffffffffffffffffffffffffffffffffffff1681526020018281526020019350505050602060405180830381600087803b1515610eaa57600080fd5b6102c65a03f11515610ebb57600080fd5b50505060405180519050508573ffffffffffffffffffffffffffffffffffffffff1663095ea7b385896000604051602001526040518363ffffffff167c0100000000000000000000000000000000000000000000000000000000028152600401808373ffffffffffffffffffffffffffffffffffffffff1673ffffffffffffffffffffffffffffffffffffffff16815260200182815260200192505050602060405180830381600087803b1515610f7157600080fd5b6102c65a03f11515610f8257600080fd5b50505060405180519050508373ffffffffffffffffffffffffffffffffffffffff1663874fc5f86000896040518363ffffffff167c0100000000000000000000000000000000000000000000000000000000028152600401808315151515815260200182815260200192505050600060405180830381600087803b151561100857600080fd5b6102c65a03f1151561101957600080fd5b50505061103b8973eeeeeeeeeeeeeeeeeeeeeeeeeeeeeeeeeeeeeeee896103bc565b91503373ffffffffffffffffffffffffffffffffffffffff166108fc839081150290604051600060405180830381858888f19350505050151561107d57600080fd5b611537565b889550600160008a73ffffffffffffffffffffffffffffffffffffffff1673ffffffffffffffffffffffffffffffffffffffff16815260200190815260200160002060009054906101000a900473ffffffffffffffffffffffffffffffffffffffff1693508573ffffffffffffffffffffffffffffffffffffffff166323b872dd33308a6000604051602001526040518463ffffffff167c0100000000000000000000000000000000000000000000000000000000028152600401808473ffffffffffffffffffffffffffffffffffffffff1673ffffffffffffffffffffffffffffffffffffffff1681526020018373ffffffffffffffffffffffffffffffffffffffff1673ffffffffffffffffffffffffffffffffffffffff1681526020018281526020019350505050602060405180830381600087803b15156111c657600080fd5b6102c65a03f115156111d757600080fd5b50505060405180519050508573ffffffffffffffffffffffffffffffffffffffff1663095ea7b385896000604051602001526040518363ffffffff167c0100000000000000000000000000000000000000000000000000000000028152600401808373ffffffffffffffffffffffffffffffffffffffff1673ffffffffffffffffffffffffffffffffffffffff16815260200182815260200192505050602060405180830381600087803b151561128d57600080fd5b6102c65a03f1151561129e57600080fd5b50505060405180519050508373ffffffffffffffffffffffffffffffffffffffff1663874fc5f86000896040518363ffffffff167c0100000000000000000000000000000000000000000000000000000000028152600401808315151515815260200182815260200192505050600060405180830381600087803b151561132457600080fd5b6102c65a03f1151561133557600080fd5b5050506113578973eeeeeeeeeeeeeeeeeeeeeeeeeeeeeeeeeeeeeeee896103bc565b9150879450600160008973ffffffffffffffffffffffffffffffffffffffff1673ffffffffffffffffffffffffffffffffffffffff16815260200190815260200160002060009054906101000a900473ffffffffffffffffffffffffffffffffffffffff1692508273ffffffffffffffffffffffffffffffffffffffff1663874fc5f8836001856040518463ffffffff167c01000000000000000000000000000000000000000000000000000000000281526004018083151515158152602001828152602001925050506000604051808303818588803b151561143957600080fd5b6125ee5a03f1151561144a57600080fd5b5050505061146d73eeeeeeeeeeeeeeeeeeeeeeeeeeeeeeeeeeeeeeee89846103bc565b90508473ffffffffffffffffffffffffffffffffffffffff1663a9059cbb33836000604051602001526040518363ffffffff167c0100000000000000000000000000000000000000000000000000000000028152600401808373ffffffffffffffffffffffffffffffffffffffff1673ffffffffffffffffffffffffffffffffffffffff16815260200182815260200192505050602060405180830381600087803b151561151a57600080fd5b6102c65a03f1151561152b57600080fd5b50505060405180519050505b5b5050505050505050505600a165627a7a7230582036c6aebed99bdd0b8bf695b542ae6fbc709f8eb3d389871ad56dd93c96e45b330029",
  "source": "pragma solidity 0.4.17;\r\n\r\nimport \"./Reserve.sol\";\r\nimport {TestToken} from \"./TestToken.sol\";\r\n\r\ncontract Exchange {\r\n    \r\n    address public owner;\r\n    address public constant ETH_ADDRESS = 0xeeeeeeeeeeeeeeeeeeeeeeeeeeeeeeeeeeeeeeee;\r\n    address public constant DEFAULT_ADDRESS = 0x0000000000000000000000000000000000000000;\r\n    mapping(address => address) public listReserve; \r\n    uint private constant inWei = 10 ** 18;\r\n    bool public trade = true;\r\n    \r\n    function Exchange() public {\r\n        owner = msg.sender;\r\n    }\r\n    \r\n    function addReserve(address _reserve, address _token, bool _isAdd) public onlyOwner returns(bool){\r\n        if(_isAdd) {\r\n            // Reserve reserve = Reserve(_reserve);\r\n            // if (reserve.supportToken() != _token){\r\n            //     return false;\r\n            // }\r\n            listReserve[_token] = _reserve;\r\n            return true;\r\n        }else {\r\n            delete listReserve[_token];\r\n            return true;\r\n        }\r\n        \r\n    }\r\n    \r\n    function getExchangeRate(address _srcToken, address _destToken, uint _srcAmmount) public view returns(uint){\r\n        //if _srcToken = ETH => buy token\r\n        if(_srcToken == ETH_ADDRESS){\r\n            Reserve re = Reserve(listReserve[_destToken]);\r\n            return re.getExchangeRate(true, _srcAmmount);\r\n        }\r\n        //else if _destToken = ETH => sell token\r\n        else if ( _destToken == ETH_ADDRESS){\r\n            re = Reserve(listReserve[_srcToken]);\r\n            return re.getExchangeRate(false, _srcAmmount);\r\n        }\r\n        //else exchange token to token\r\n        else {\r\n            Reserve reSrc = Reserve(listReserve[_srcToken]);\r\n            uint weiRecieved = reSrc.getExchangeRate(false, _srcAmmount);\r\n            Reserve reDest = Reserve(listReserve[_destToken]);\r\n            return reDest.getExchangeRate(true, weiRecieved);\r\n        }\r\n    }\r\n\r\n    function() public payable {\r\n    }\r\n    \r\n    function exchangeToken(address _srcToken, address _destToken, uint _srcAmmount) public payable onlyTradable{\r\n        \r\n        TestToken srcTokenContract;\r\n        TestToken destTokenContract;\r\n        Reserve srcReserve;\r\n        Reserve destReserve;\r\n        uint weiRecieved;\r\n        uint tokenReceived;\r\n        \r\n          //if _srcToken = ETH => buy token\r\n          \r\n        if(_srcToken == ETH_ADDRESS){\r\n            \r\n            require(_srcAmmount == msg.value);\r\n            destTokenContract = TestToken(_destToken);\r\n            destReserve = Reserve(listReserve[_destToken]);\r\n            destReserve.exchange.value(msg.value)(true, _srcAmmount);\r\n            tokenReceived = getExchangeRate(ETH_ADDRESS, _destToken, _srcAmmount);\r\n            destTokenContract.transfer(msg.sender, tokenReceived);\r\n            \r\n        } else if ( _destToken == ETH_ADDRESS){ //else if _destToken = ETH => sell token\r\n        \r\n            srcTokenContract = TestToken(_srcToken);\r\n            srcReserve = Reserve(listReserve[_srcToken]);\r\n            \r\n            srcTokenContract.transferFrom(msg.sender, address(this), _srcAmmount);\r\n            srcTokenContract.approve(address(srcReserve), _srcAmmount);\r\n\r\n            srcReserve.exchange(false, _srcAmmount);\r\n            weiRecieved = getExchangeRate(_srcToken, ETH_ADDRESS, _srcAmmount);\r\n            (msg.sender).transfer(weiRecieved);\r\n            \r\n        }else { //else exchange token to token\r\n            //sell token\r\n            srcTokenContract = TestToken(_srcToken);\r\n            srcReserve = Reserve(listReserve[_srcToken]);\r\n\r\n            srcTokenContract.transferFrom(msg.sender, this, _srcAmmount);\r\n            srcTokenContract.approve(address(srcReserve), _srcAmmount);\r\n            srcReserve.exchange(false, _srcAmmount);\r\n            weiRecieved = getExchangeRate(_srcToken, ETH_ADDRESS, _srcAmmount);\r\n            \r\n            //buy token\r\n            destTokenContract = TestToken(_destToken);\r\n            destReserve = Reserve(listReserve[_destToken]);\r\n\r\n            destReserve.exchange.value(weiRecieved)(true, weiRecieved);\r\n            tokenReceived = getExchangeRate(ETH_ADDRESS, _destToken, weiRecieved);\r\n            destTokenContract.transfer(msg.sender, tokenReceived);\r\n            \r\n        }\r\n    }\r\n\r\n    function setTradable(bool _flag) public onlyOwner {\r\n        trade = _flag;\r\n    }\r\n\r\n    modifier onlyOwner {\r\n        require(msg.sender == owner);\r\n        _;\r\n    }\r\n    \r\n    \r\n    modifier onlyTradable {\r\n        require(trade == true);\r\n        _;\r\n    }\r\n}\r\n",
  "sourcePath": "C:\\Users\\My PC\\Desktop\\TestCAP\\contracts\\Exchange.sol",
  "compiler": {
    "name": "solc",
    "version": "0.4.17+commit.bdeb9e52.Emscripten.clang"
  },
  "schemaVersion": "3.1.0",
  "updatedAt": "2020-07-27T03:56:46.459Z",
  "networkType": "ethereum",
  "devdoc": {
    "methods": {}
  },
  "userdoc": {
    "methods": {}
  }
}