{
  "contractName": "Reserve",
  "abi": [
    {
      "constant": true,
      "inputs": [],
      "name": "sellRate",
      "outputs": [
        {
          "name": "",
          "type": "uint256"
        }
      ],
      "payable": false,
      "stateMutability": "view",
      "type": "function"
    },
    {
      "constant": true,
      "inputs": [],
      "name": "supportToken",
      "outputs": [
        {
          "name": "",
          "type": "address"
        }
      ],
      "payable": false,
      "stateMutability": "view",
      "type": "function"
    },
    {
      "constant": true,
      "inputs": [],
      "name": "owner",
      "outputs": [
        {
          "name": "",
          "type": "address"
        }
      ],
      "payable": false,
      "stateMutability": "view",
      "type": "function"
    },
    {
      "constant": true,
      "inputs": [],
      "name": "ETH_ADDRESS",
      "outputs": [
        {
          "name": "",
          "type": "address"
        }
      ],
      "payable": false,
      "stateMutability": "view",
      "type": "function"
    },
    {
      "constant": true,
      "inputs": [],
      "name": "funds",
      "outputs": [
        {
          "name": "ethStored",
          "type": "uint256"
        },
        {
          "name": "tokenStored",
          "type": "uint256"
        }
      ],
      "payable": false,
      "stateMutability": "view",
      "type": "function"
    },
    {
      "constant": true,
      "inputs": [],
      "name": "buyRate",
      "outputs": [
        {
          "name": "",
          "type": "uint256"
        }
      ],
      "payable": false,
      "stateMutability": "view",
      "type": "function"
    },
    {
      "inputs": [
        {
          "name": "_supportToken",
          "type": "address"
        }
      ],
      "payable": false,
      "stateMutability": "nonpayable",
      "type": "constructor"
    },
    {
      "constant": false,
      "inputs": [
        {
          "name": "token",
          "type": "address"
        },
        {
          "name": "amount",
          "type": "uint256"
        },
        {
          "name": "destAddress",
          "type": "address"
        }
      ],
      "name": "withdrawFunds",
      "outputs": [],
      "payable": false,
      "stateMutability": "nonpayable",
      "type": "function"
    },
    {
      "constant": false,
      "inputs": [
        {
          "name": "_buyRate",
          "type": "uint256"
        },
        {
          "name": "_sellRate",
          "type": "uint256"
        }
      ],
      "name": "setExchangeRates",
      "outputs": [],
      "payable": false,
      "stateMutability": "nonpayable",
      "type": "function"
    },
    {
      "constant": true,
      "inputs": [
        {
          "name": "_isBuy",
          "type": "bool"
        },
        {
          "name": "_srcAmount",
          "type": "uint256"
        }
      ],
      "name": "getExchangeRate",
      "outputs": [
        {
          "name": "",
          "type": "uint256"
        }
      ],
      "payable": false,
      "stateMutability": "view",
      "type": "function"
    },
    {
      "constant": false,
      "inputs": [
        {
          "name": "_isBuy",
          "type": "bool"
        },
        {
          "name": "_srcAmount",
          "type": "uint256"
        }
      ],
      "name": "exchange",
      "outputs": [],
      "payable": true,
      "stateMutability": "payable",
      "type": "function"
    }
  ],
  "bytecode": "0x6060604052600a600455600a600555341561001957600080fd5b6040516020806108358339810160405280805190602001909190505033600260006101000a81548173ffffffffffffffffffffffffffffffffffffffff021916908373ffffffffffffffffffffffffffffffffffffffff16021790555080600360006101000a81548173ffffffffffffffffffffffffffffffffffffffff021916908373ffffffffffffffffffffffffffffffffffffffff1602179055505061076e806100c76000396000f300606060405236156100a2576000357c0100000000000000000000000000000000000000000000000000000000900463ffffffff16806347c6b45e146100a75780636217229b1461010857806377ed0ad614610131578063845ad81314610173578063874fc5f8146101c85780638da5cb5b146101eb578063a734f06e14610240578063c89f2ce414610295578063e637a44b146102c5578063fc37987b146102f1575b600080fd5b34156100b257600080fd5b610106600480803573ffffffffffffffffffffffffffffffffffffffff1690602001909190803590602001909190803573ffffffffffffffffffffffffffffffffffffffff1690602001909190505061031a565b005b341561011357600080fd5b61011b61037b565b6040518082815260200191505060405180910390f35b341561013c57600080fd5b61015d60048080351515906020019091908035906020019091905050610381565b6040518082815260200191505060405180910390f35b341561017e57600080fd5b6101866103a9565b604051808273ffffffffffffffffffffffffffffffffffffffff1673ffffffffffffffffffffffffffffffffffffffff16815260200191505060405180910390f35b6101e9600480803515159060200190919080359060200190919050506103cf565b005b34156101f657600080fd5b6101fe610661565b604051808273ffffffffffffffffffffffffffffffffffffffff1673ffffffffffffffffffffffffffffffffffffffff16815260200191505060405180910390f35b341561024b57600080fd5b610253610687565b604051808273ffffffffffffffffffffffffffffffffffffffff1673ffffffffffffffffffffffffffffffffffffffff16815260200191505060405180910390f35b34156102a057600080fd5b6102a861069f565b604051808381526020018281526020019250505060405180910390f35b34156102d057600080fd5b6102ef60048080359060200190919080359060200190919050506106b1565b005b34156102fc57600080fd5b61030461073c565b6040518082815260200191505060405180910390f35b600260009054906101000a900473ffffffffffffffffffffffffffffffffffffffff1673ffffffffffffffffffffffffffffffffffffffff163373ffffffffffffffffffffffffffffffffffffffff1614151561037657600080fd5b505050565b60055481565b60008261039b576005548281151561039557fe5b046103a1565b81600454025b905092915050565b600360009054906101000a900473ffffffffffffffffffffffffffffffffffffffff1681565b6000600360009054906101000a900473ffffffffffffffffffffffffffffffffffffffff16905082156104e45734670de0b6b3a7640000830214151561041457600080fd5b8073ffffffffffffffffffffffffffffffffffffffff1663a9059cbb3360045485026000604051602001526040518363ffffffff167c0100000000000000000000000000000000000000000000000000000000028152600401808373ffffffffffffffffffffffffffffffffffffffff1673ffffffffffffffffffffffffffffffffffffffff16815260200182815260200192505050602060405180830381600087803b15156104c357600080fd5b6102c65a03f115156104d457600080fd5b505050604051805190505061065c565b600360009054906101000a900473ffffffffffffffffffffffffffffffffffffffff1690508073ffffffffffffffffffffffffffffffffffffffff166323b872dd3330856000604051602001526040518463ffffffff167c0100000000000000000000000000000000000000000000000000000000028152600401808473ffffffffffffffffffffffffffffffffffffffff1673ffffffffffffffffffffffffffffffffffffffff1681526020018373ffffffffffffffffffffffffffffffffffffffff1673ffffffffffffffffffffffffffffffffffffffff1681526020018281526020019350505050602060405180830381600087803b15156105e857600080fd5b6102c65a03f115156105f957600080fd5b50505060405180519050503373ffffffffffffffffffffffffffffffffffffffff166108fc600554670de0b6b3a7640000850281151561063557fe5b049081150290604051600060405180830381858888f19350505050151561065b57600080fd5b5b505050565b600260009054906101000a900473ffffffffffffffffffffffffffffffffffffffff1681565b73eeeeeeeeeeeeeeeeeeeeeeeeeeeeeeeeeeeeeeee81565b60008060000154908060010154905082565b600260009054906101000a900473ffffffffffffffffffffffffffffffffffffffff1673ffffffffffffffffffffffffffffffffffffffff163373ffffffffffffffffffffffffffffffffffffffff1614151561070d57600080fd5b6000821015801561071f575060008110155b151561072a57600080fd5b81600481905550806005819055505050565b600454815600a165627a7a72305820831f5bd911c2e1a5b82f3021e5d0ee0ecac08212ae4dd20f495ec9afa1e1acac0029",
  "source": "pragma solidity 0.4.17;\n\n// import {} \"./TestToken.sol\";\nimport {SafeMath, TestToken} from \"./TestToken.sol\";\n\ncontract Reserve {\n    // using SafeMath for uint;\n    struct Fund {\n        uint ethStored;\n        uint tokenStored;\n    }\n    \n    Fund public funds;\n    \n    address public owner;\n    address public supportToken;\n    uint public buyRate = 10;\n    uint public sellRate = 10;\n    address public constant ETH_ADDRESS = 0xeeeeeeeeeeeeeeeeeeeeeeeeeeeeeeeeeeeeeeee;\n    \n    function Reserve(address _supportToken) public {\n        owner = msg.sender;\n        supportToken = _supportToken;\n    }\n    \n    function withdrawFunds(address token, uint amount, address destAddress) public onlyOwner{\n        \n    }\n    \n    function setExchangeRates(uint _buyRate, uint _sellRate) public onlyOwner{\n        require(_buyRate >= 0 && _sellRate >= 0 );\n        buyRate = _buyRate;\n        sellRate = _sellRate;\n    }\n    \n    function getExchangeRate(bool _isBuy, uint _srcAmount) public view returns(uint){\n        return _isBuy ? buyRate * _srcAmount : _srcAmount / sellRate;\n    }\n    \n    function exchange(bool _isBuy, uint _srcAmount) public payable {\n        TestToken tokenContract = TestToken(supportToken);\n        if(_isBuy){\n            require(_srcAmount * 10**18 == msg.value);\n            tokenContract.transfer(msg.sender, _srcAmount * buyRate );\n  \n        }else {\n            tokenContract = TestToken(supportToken);\n            tokenContract.transferFrom(msg.sender, this, _srcAmount);\n            (msg.sender).transfer((_srcAmount * 10**18/sellRate));\n        }\n    }\n    \n    modifier onlyOwner {\n        require(msg.sender == owner);\n        _;\n    }\n    \n}",
  "sourcePath": "C:\\Users\\My PC\\Desktop\\TestCAP\\contracts\\Reserve.sol",
  "compiler": {
    "name": "solc",
    "version": "0.4.17+commit.bdeb9e52.Emscripten.clang"
  },
  "schemaVersion": "3.1.0",
  "updatedAt": "2020-06-22T08:31:18.259Z",
  "networkType": "ethereum",
  "devdoc": {
    "methods": {}
  },
  "userdoc": {
    "methods": {}
  }
}