{
  "contractName": "Reserve",
  "abi": [
    {
      "constant": true,
      "inputs": [],
      "name": "trade",
      "outputs": [
        {
          "name": "",
          "type": "bool"
        }
      ],
      "payable": false,
      "stateMutability": "view",
      "type": "function"
    },
    {
      "constant": true,
      "inputs": [],
      "name": "decimals",
      "outputs": [
        {
          "name": "",
          "type": "uint256"
        }
      ],
      "payable": false,
      "stateMutability": "view",
      "type": "function"
    },
    {
      "constant": true,
      "inputs": [],
      "name": "sellRate",
      "outputs": [
        {
          "name": "",
          "type": "uint256"
        }
      ],
      "payable": false,
      "stateMutability": "view",
      "type": "function"
    },
    {
      "constant": true,
      "inputs": [],
      "name": "supportToken",
      "outputs": [
        {
          "name": "",
          "type": "address"
        }
      ],
      "payable": false,
      "stateMutability": "view",
      "type": "function"
    },
    {
      "constant": true,
      "inputs": [],
      "name": "owner",
      "outputs": [
        {
          "name": "",
          "type": "address"
        }
      ],
      "payable": false,
      "stateMutability": "view",
      "type": "function"
    },
    {
      "constant": true,
      "inputs": [],
      "name": "funds",
      "outputs": [
        {
          "name": "ethStored",
          "type": "uint256"
        },
        {
          "name": "tokenStored",
          "type": "uint256"
        }
      ],
      "payable": false,
      "stateMutability": "view",
      "type": "function"
    },
    {
      "constant": true,
      "inputs": [],
      "name": "buyRate",
      "outputs": [
        {
          "name": "",
          "type": "uint256"
        }
      ],
      "payable": false,
      "stateMutability": "view",
      "type": "function"
    },
    {
      "inputs": [
        {
          "name": "_supportToken",
          "type": "address"
        }
      ],
      "payable": false,
      "stateMutability": "nonpayable",
      "type": "constructor"
    },
    {
      "payable": true,
      "stateMutability": "payable",
      "type": "fallback"
    },
    {
      "constant": false,
      "inputs": [
        {
          "name": "_token",
          "type": "address"
        },
        {
          "name": "_amount",
          "type": "uint256"
        },
        {
          "name": "_destAddress",
          "type": "address"
        }
      ],
      "name": "withdrawFunds",
      "outputs": [],
      "payable": false,
      "stateMutability": "nonpayable",
      "type": "function"
    },
    {
      "constant": false,
      "inputs": [
        {
          "name": "_buyRate",
          "type": "uint256"
        },
        {
          "name": "_sellRate",
          "type": "uint256"
        }
      ],
      "name": "setExchangeRates",
      "outputs": [],
      "payable": false,
      "stateMutability": "nonpayable",
      "type": "function"
    },
    {
      "constant": true,
      "inputs": [
        {
          "name": "_isBuy",
          "type": "bool"
        },
        {
          "name": "_srcAmount",
          "type": "uint256"
        }
      ],
      "name": "getExchangeRate",
      "outputs": [
        {
          "name": "",
          "type": "uint256"
        }
      ],
      "payable": false,
      "stateMutability": "view",
      "type": "function"
    },
    {
      "constant": false,
      "inputs": [
        {
          "name": "_isBuy",
          "type": "bool"
        },
        {
          "name": "_srcAmount",
          "type": "uint256"
        }
      ],
      "name": "exchange",
      "outputs": [],
      "payable": true,
      "stateMutability": "payable",
      "type": "function"
    },
    {
      "constant": false,
      "inputs": [
        {
          "name": "_flag",
          "type": "bool"
        }
      ],
      "name": "setTradable",
      "outputs": [],
      "payable": false,
      "stateMutability": "nonpayable",
      "type": "function"
    }
  ],
  "bytecode": "0x6060604052600a600555600a6006556001600760006101000a81548160ff021916908315150217905550341561003457600080fd5b604051602080610cd683398101604052808051906020019091905050600033600260006101000a81548173ffffffffffffffffffffffffffffffffffffffff021916908373ffffffffffffffffffffffffffffffffffffffff16021790555081600460006101000a81548173ffffffffffffffffffffffffffffffffffffffff021916908373ffffffffffffffffffffffffffffffffffffffff160217905550600460009054906101000a900473ffffffffffffffffffffffffffffffffffffffff1690508073ffffffffffffffffffffffffffffffffffffffff1663313ce5676000604051602001526040518163ffffffff167c0100000000000000000000000000000000000000000000000000000000028152600401602060405180830381600087803b151561016557600080fd5b6102c65a03f1151561017657600080fd5b5050506040518051905060038190555060008060000181905550600354600a0a620f4240026000600101819055505050610b21806101b56000396000f300606060405236156100b8576000357c0100000000000000000000000000000000000000000000000000000000900463ffffffff1680631f0ba6c9146100cc578063313ce567146100f957806347c6b45e146101225780636217229b1461018357806377ed0ad6146101ac5780637cd50577146101ee578063845ad81314610213578063874fc5f8146102685780638da5cb5b1461028b578063c89f2ce4146102e0578063e637a44b14610310578063fc37987b1461033c575b346000800160008282540192505081905550005b34156100d757600080fd5b6100df610365565b604051808215151515815260200191505060405180910390f35b341561010457600080fd5b61010c610378565b6040518082815260200191505060405180910390f35b341561012d57600080fd5b610181600480803573ffffffffffffffffffffffffffffffffffffffff1690602001909190803590602001909190803573ffffffffffffffffffffffffffffffffffffffff1690602001909190505061037e565b005b341561018e57600080fd5b6101966105fa565b6040518082815260200191505060405180910390f35b34156101b757600080fd5b6101d860048080351515906020019091908035906020019091905050610600565b6040518082815260200191505060405180910390f35b34156101f957600080fd5b61021160048080351515906020019091905050610699565b005b341561021e57600080fd5b610226610712565b604051808273ffffffffffffffffffffffffffffffffffffffff1673ffffffffffffffffffffffffffffffffffffffff16815260200191505060405180910390f35b61028960048080351515906020019091908035906020019091905050610738565b005b341561029657600080fd5b61029e610a49565b604051808273ffffffffffffffffffffffffffffffffffffffff1673ffffffffffffffffffffffffffffffffffffffff16815260200191505060405180910390f35b34156102eb57600080fd5b6102f3610a6f565b604051808381526020018281526020019250505060405180910390f35b341561031b57600080fd5b61033a6004808035906020019091908035906020019091905050610a81565b005b341561034757600080fd5b61034f610aef565b6040518082815260200191505060405180910390f35b600760009054906101000a900460ff1681565b60035481565b6000600260009054906101000a900473ffffffffffffffffffffffffffffffffffffffff1673ffffffffffffffffffffffffffffffffffffffff163373ffffffffffffffffffffffffffffffffffffffff161415156103dc57600080fd5b73eeeeeeeeeeeeeeeeeeeeeeeeeeeeeeeeeeeeeeee73ffffffffffffffffffffffffffffffffffffffff168473ffffffffffffffffffffffffffffffffffffffff16141561048a576000800154831115151561043757600080fd5b8173ffffffffffffffffffffffffffffffffffffffff166108fc849081150290604051600060405180830381858888f19350505050151561047757600080fd5b8260008001600082825403925050819055505b600460009054906101000a900473ffffffffffffffffffffffffffffffffffffffff1673ffffffffffffffffffffffffffffffffffffffff168473ffffffffffffffffffffffffffffffffffffffff1614156105f45760006001015483111515156104f457600080fd5b600460009054906101000a900473ffffffffffffffffffffffffffffffffffffffff1690508073ffffffffffffffffffffffffffffffffffffffff1663a9059cbb83856000604051602001526040518363ffffffff167c0100000000000000000000000000000000000000000000000000000000028152600401808373ffffffffffffffffffffffffffffffffffffffff1673ffffffffffffffffffffffffffffffffffffffff16815260200182815260200192505050602060405180830381600087803b15156105c457600080fd5b6102c65a03f115156105d557600080fd5b5050506040518051905050826000600101600082825403925050819055505b50505050565b60065481565b600082156106545760008060010154111561064b57600554670de0b6b3a7640000600354600a0a600354600a0a85020281151561063957fe5b0481151561064357fe5b049050610693565b60009050610693565b60008060000154111561068e57600354600a0a60065402670de0b6b3a7640000600354600a0a84020281151561068657fe5b049050610693565b600090505b92915050565b600260009054906101000a900473ffffffffffffffffffffffffffffffffffffffff1673ffffffffffffffffffffffffffffffffffffffff163373ffffffffffffffffffffffffffffffffffffffff161415156106f557600080fd5b80600760006101000a81548160ff02191690831515021790555050565b600460009054906101000a900473ffffffffffffffffffffffffffffffffffffffff1681565b60008060011515600760009054906101000a900460ff16151514151561075d57600080fd5b600460009054906101000a900473ffffffffffffffffffffffffffffffffffffffff16915083156108b557348314151561079657600080fd5b6107a1600134610600565b9050600081141580156107b957508060006001015410155b15156107c457600080fd5b8173ffffffffffffffffffffffffffffffffffffffff1663a9059cbb33836000604051602001526040518363ffffffff167c0100000000000000000000000000000000000000000000000000000000028152600401808373ffffffffffffffffffffffffffffffffffffffff1673ffffffffffffffffffffffffffffffffffffffff16815260200182815260200192505050602060405180830381600087803b151561086f57600080fd5b6102c65a03f1151561088057600080fd5b505050604051805190505080600060010160008282540392505081905550346000800160008282540192505081905550610a43565b8173ffffffffffffffffffffffffffffffffffffffff166323b872dd3330866000604051602001526040518463ffffffff167c0100000000000000000000000000000000000000000000000000000000028152600401808473ffffffffffffffffffffffffffffffffffffffff1673ffffffffffffffffffffffffffffffffffffffff1681526020018373ffffffffffffffffffffffffffffffffffffffff1673ffffffffffffffffffffffffffffffffffffffff1681526020018281526020019350505050602060405180830381600087803b151561099457600080fd5b6102c65a03f115156109a557600080fd5b50505060405180519050506109bb600084610600565b9050600081141580156109d2575080600080015410155b15156109dd57600080fd5b3373ffffffffffffffffffffffffffffffffffffffff166108fc829081150290604051600060405180830381858888f193505050501515610a1d57600080fd5b826000600101600082825401925050819055508060008001600082825403925050819055505b50505050565b600260009054906101000a900473ffffffffffffffffffffffffffffffffffffffff1681565b60008060000154908060010154905082565b600260009054906101000a900473ffffffffffffffffffffffffffffffffffffffff1673ffffffffffffffffffffffffffffffffffffffff163373ffffffffffffffffffffffffffffffffffffffff16141515610add57600080fd5b81600581905550806006819055505050565b600554815600a165627a7a723058209b72608ca5222c10825e2a67b0398c4f1629bdb21b7803df362e3d893a9c5b5f0029",
  "source": "pragma solidity 0.4.17;\r\n\r\nimport {TestToken} from \"./TestToken.sol\";\r\n\r\ncontract Reserve {\r\n    struct Fund {\r\n        uint256 ethStored;\r\n        uint256 tokenStored;\r\n    }\r\n\r\n    Fund public funds;\r\n\r\n    address public owner;\r\n    uint256 public decimals;\r\n    uint256 private constant inWei = 10**18;\r\n    address public supportToken;\r\n    uint256 public buyRate = 10;\r\n    uint256 public sellRate = 10;\r\n    address\r\n        private constant ETH_ADDRESS = 0xeeeeeeeeeeeeeeeeeeeeeeeeeeeeeeeeeeeeeeee;\r\n    bool public trade = true;\r\n\r\n    function Reserve(address _supportToken) public {\r\n        owner = msg.sender;\r\n        supportToken = _supportToken;\r\n        TestToken tokenContract = TestToken(supportToken);\r\n        decimals = tokenContract.decimals();\r\n        funds.ethStored = 0;\r\n        funds.tokenStored = 1000000 * (10**decimals);\r\n    }\r\n\r\n    function() public payable {\r\n        funds.ethStored += msg.value;\r\n    }\r\n\r\n    function withdrawFunds(\r\n        address _token,\r\n        uint256 _amount,\r\n        address _destAddress\r\n    ) public onlyOwner {\r\n        if (_token == ETH_ADDRESS) {\r\n            require(_amount <= funds.ethStored);\r\n            _destAddress.transfer(_amount);\r\n            funds.ethStored -= _amount;\r\n        }\r\n        if (_token == supportToken) {\r\n            require(_amount <= funds.tokenStored);\r\n            TestToken tokenContract = TestToken(supportToken);\r\n            tokenContract.transfer(_destAddress, _amount);\r\n            funds.tokenStored -= _amount;\r\n        }\r\n    }\r\n\r\n    function setExchangeRates(uint256 _buyRate, uint256 _sellRate)\r\n        public\r\n        onlyOwner\r\n    {\r\n        buyRate = _buyRate;\r\n        sellRate = _sellRate;\r\n    }\r\n\r\n    function getExchangeRate(bool _isBuy, uint256 _srcAmount)\r\n        public\r\n        view\r\n        returns (uint256)\r\n    {\r\n        if (_isBuy) {     \r\n            if (funds.tokenStored > 0) {\r\n                return (((_srcAmount * (10**decimals) * (10**decimals)) /\r\n                    inWei) / buyRate);\r\n            }\r\n            return 0;\r\n        } else {\r\n            if (funds.ethStored > 0) {\r\n                return\r\n                    ((_srcAmount * (10**decimals) * inWei)) /\r\n                    (sellRate * (10**decimals));\r\n            }\r\n            return 0;\r\n        }\r\n    }\r\n\r\n    function toDecimal(uint256 _value) private view returns (uint256) {\r\n        return _value * (10**decimals);\r\n    }\r\n\r\n    function exchange(bool _isBuy, uint256 _srcAmount)\r\n        public\r\n        payable\r\n        onlyTradable\r\n    {\r\n        TestToken tokenContract = TestToken(supportToken);\r\n        uint256 transferAmount;\r\n        if (_isBuy) {\r\n            \r\n            require(_srcAmount == msg.value);\r\n            transferAmount = getExchangeRate(true, msg.value);\r\n            //check enough token to send back\r\n            require(transferAmount != 0 && funds.tokenStored >= transferAmount);\r\n            tokenContract.transfer(msg.sender, transferAmount);\r\n            funds.tokenStored -= transferAmount;\r\n            funds.ethStored += msg.value;\r\n        } else {\r\n            \r\n            tokenContract.transferFrom(msg.sender, address(this), _srcAmount);\r\n            transferAmount = getExchangeRate(false, _srcAmount);\r\n            //check enough ether to send back\r\n            require(transferAmount != 0 && funds.ethStored >= transferAmount);\r\n            msg.sender.transfer(transferAmount);\r\n            funds.tokenStored += _srcAmount;\r\n            funds.ethStored -= transferAmount;\r\n        }\r\n    }\r\n\r\n    function setTradable(bool _flag) public onlyOwner {\r\n        trade = _flag;\r\n    }\r\n\r\n    modifier onlyOwner {\r\n        require(msg.sender == owner);\r\n        _;\r\n    }\r\n\r\n    modifier onlyTradable {\r\n        require(trade == true);\r\n        _;\r\n    }\r\n}\r\n",
  "sourcePath": "C:\\Users\\My PC\\Desktop\\TestCAP\\contracts\\Reserve.sol",
  "compiler": {
    "name": "solc",
    "version": "0.4.17+commit.bdeb9e52.Emscripten.clang"
  },
  "schemaVersion": "3.1.0",
  "updatedAt": "2020-07-28T09:11:37.472Z",
  "devdoc": {
    "methods": {}
  },
  "userdoc": {
    "methods": {}
  }
}