{
  "contractName": "Reserve",
  "abi": [
    {
      "constant": true,
      "inputs": [],
      "name": "trade",
      "outputs": [
        {
          "name": "",
          "type": "bool"
        }
      ],
      "payable": false,
      "stateMutability": "view",
      "type": "function"
    },
    {
      "constant": true,
      "inputs": [],
      "name": "decimals",
      "outputs": [
        {
          "name": "",
          "type": "uint256"
        }
      ],
      "payable": false,
      "stateMutability": "view",
      "type": "function"
    },
    {
      "constant": true,
      "inputs": [],
      "name": "sellRate",
      "outputs": [
        {
          "name": "",
          "type": "uint256"
        }
      ],
      "payable": false,
      "stateMutability": "view",
      "type": "function"
    },
    {
      "constant": true,
      "inputs": [],
      "name": "inWei",
      "outputs": [
        {
          "name": "",
          "type": "uint256"
        }
      ],
      "payable": false,
      "stateMutability": "view",
      "type": "function"
    },
    {
      "constant": true,
      "inputs": [],
      "name": "supportToken",
      "outputs": [
        {
          "name": "",
          "type": "address"
        }
      ],
      "payable": false,
      "stateMutability": "view",
      "type": "function"
    },
    {
      "constant": true,
      "inputs": [],
      "name": "owner",
      "outputs": [
        {
          "name": "",
          "type": "address"
        }
      ],
      "payable": false,
      "stateMutability": "view",
      "type": "function"
    },
    {
      "constant": true,
      "inputs": [],
      "name": "ETH_ADDRESS",
      "outputs": [
        {
          "name": "",
          "type": "address"
        }
      ],
      "payable": false,
      "stateMutability": "view",
      "type": "function"
    },
    {
      "constant": true,
      "inputs": [],
      "name": "funds",
      "outputs": [
        {
          "name": "ethStored",
          "type": "uint256"
        },
        {
          "name": "tokenStored",
          "type": "uint256"
        }
      ],
      "payable": false,
      "stateMutability": "view",
      "type": "function"
    },
    {
      "constant": true,
      "inputs": [],
      "name": "buyRate",
      "outputs": [
        {
          "name": "",
          "type": "uint256"
        }
      ],
      "payable": false,
      "stateMutability": "view",
      "type": "function"
    },
    {
      "inputs": [
        {
          "name": "_supportToken",
          "type": "address"
        }
      ],
      "payable": false,
      "stateMutability": "nonpayable",
      "type": "constructor"
    },
    {
      "payable": true,
      "stateMutability": "payable",
      "type": "fallback"
    },
    {
      "constant": false,
      "inputs": [
        {
          "name": "_token",
          "type": "address"
        },
        {
          "name": "_amount",
          "type": "uint256"
        },
        {
          "name": "_destAddress",
          "type": "address"
        }
      ],
      "name": "withdrawFunds",
      "outputs": [],
      "payable": false,
      "stateMutability": "nonpayable",
      "type": "function"
    },
    {
      "constant": false,
      "inputs": [
        {
          "name": "_buyRate",
          "type": "uint256"
        },
        {
          "name": "_sellRate",
          "type": "uint256"
        }
      ],
      "name": "setExchangeRates",
      "outputs": [],
      "payable": false,
      "stateMutability": "nonpayable",
      "type": "function"
    },
    {
      "constant": true,
      "inputs": [
        {
          "name": "_isBuy",
          "type": "bool"
        },
        {
          "name": "_srcAmount",
          "type": "uint256"
        }
      ],
      "name": "getExchangeRate",
      "outputs": [
        {
          "name": "",
          "type": "uint256"
        }
      ],
      "payable": false,
      "stateMutability": "view",
      "type": "function"
    },
    {
      "constant": false,
      "inputs": [
        {
          "name": "_isBuy",
          "type": "bool"
        },
        {
          "name": "_srcAmount",
          "type": "uint256"
        }
      ],
      "name": "exchange",
      "outputs": [],
      "payable": true,
      "stateMutability": "payable",
      "type": "function"
    },
    {
      "constant": false,
      "inputs": [
        {
          "name": "_flag",
          "type": "bool"
        }
      ],
      "name": "setTradable",
      "outputs": [],
      "payable": false,
      "stateMutability": "nonpayable",
      "type": "function"
    }
  ],
  "bytecode": "0x6060604052600a600555600a6006556001600760006101000a81548160ff021916908315150217905550341561003457600080fd5b604051602080610dc883398101604052808051906020019091905050600033600260006101000a81548173ffffffffffffffffffffffffffffffffffffffff021916908373ffffffffffffffffffffffffffffffffffffffff16021790555081600460006101000a81548173ffffffffffffffffffffffffffffffffffffffff021916908373ffffffffffffffffffffffffffffffffffffffff160217905550600460009054906101000a900473ffffffffffffffffffffffffffffffffffffffff1690508073ffffffffffffffffffffffffffffffffffffffff1663313ce5676000604051602001526040518163ffffffff167c0100000000000000000000000000000000000000000000000000000000028152600401602060405180830381600087803b151561016557600080fd5b6102c65a03f1151561017657600080fd5b5050506040518051905060038190555060008060000181905550600354600a0a620f4240026000600101819055505050610c13806101b56000396000f300606060405236156100ce576000357c0100000000000000000000000000000000000000000000000000000000900463ffffffff1680631f0ba6c9146100e2578063313ce5671461010f57806347c6b45e146101385780636217229b146101995780636a963775146101c257806377ed0ad6146101eb5780637cd505771461022d578063845ad81314610252578063874fc5f8146102a75780638da5cb5b146102ca578063a734f06e1461031f578063c89f2ce414610374578063e637a44b146103a4578063fc37987b146103d0575b346000800160008282540192505081905550005b34156100ed57600080fd5b6100f56103f9565b604051808215151515815260200191505060405180910390f35b341561011a57600080fd5b61012261040c565b6040518082815260200191505060405180910390f35b341561014357600080fd5b610197600480803573ffffffffffffffffffffffffffffffffffffffff1690602001909190803590602001909190803573ffffffffffffffffffffffffffffffffffffffff16906020019091905050610412565b005b34156101a457600080fd5b6101ac6106c6565b6040518082815260200191505060405180910390f35b34156101cd57600080fd5b6101d56106cc565b6040518082815260200191505060405180910390f35b34156101f657600080fd5b610217600480803515159060200190919080359060200190919050506106d8565b6040518082815260200191505060405180910390f35b341561023857600080fd5b61025060048080351515906020019091905050610771565b005b341561025d57600080fd5b6102656107ea565b604051808273ffffffffffffffffffffffffffffffffffffffff1673ffffffffffffffffffffffffffffffffffffffff16815260200191505060405180910390f35b6102c860048080351515906020019091908035906020019091905050610810565b005b34156102d557600080fd5b6102dd610b06565b604051808273ffffffffffffffffffffffffffffffffffffffff1673ffffffffffffffffffffffffffffffffffffffff16815260200191505060405180910390f35b341561032a57600080fd5b610332610b2c565b604051808273ffffffffffffffffffffffffffffffffffffffff1673ffffffffffffffffffffffffffffffffffffffff16815260200191505060405180910390f35b341561037f57600080fd5b610387610b44565b604051808381526020018281526020019250505060405180910390f35b34156103af57600080fd5b6103ce6004808035906020019091908035906020019091905050610b56565b005b34156103db57600080fd5b6103e3610be1565b6040518082815260200191505060405180910390f35b600760009054906101000a900460ff1681565b60035481565b6000600260009054906101000a900473ffffffffffffffffffffffffffffffffffffffff1673ffffffffffffffffffffffffffffffffffffffff163373ffffffffffffffffffffffffffffffffffffffff1614151561047057600080fd5b73eeeeeeeeeeeeeeeeeeeeeeeeeeeeeeeeeeeeeeee73ffffffffffffffffffffffffffffffffffffffff168473ffffffffffffffffffffffffffffffffffffffff16141561053a57600080600001541180156104cc5750600083115b80156104dc575060008001548311155b15156104e757600080fd5b8173ffffffffffffffffffffffffffffffffffffffff166108fc849081150290604051600060405180830381858888f19350505050151561052757600080fd5b8260008001600082825403925050819055505b600460009054906101000a900473ffffffffffffffffffffffffffffffffffffffff1673ffffffffffffffffffffffffffffffffffffffff168473ffffffffffffffffffffffffffffffffffffffff1614156106c057600080600101541180156105a45750600083115b80156105b557506000600101548311155b15156105c057600080fd5b600460009054906101000a900473ffffffffffffffffffffffffffffffffffffffff1690508073ffffffffffffffffffffffffffffffffffffffff1663a9059cbb83856000604051602001526040518363ffffffff167c0100000000000000000000000000000000000000000000000000000000028152600401808373ffffffffffffffffffffffffffffffffffffffff1673ffffffffffffffffffffffffffffffffffffffff16815260200182815260200192505050602060405180830381600087803b151561069057600080fd5b6102c65a03f115156106a157600080fd5b5050506040518051905050826000600101600082825403925050819055505b50505050565b60065481565b670de0b6b3a764000081565b6000821561072c5760008060010154111561072357600554670de0b6b3a7640000600354600a0a600354600a0a85020281151561071157fe5b0481151561071b57fe5b04905061076b565b6000905061076b565b60008060000154111561076657600354600a0a60065402670de0b6b3a7640000600354600a0a84020281151561075e57fe5b04905061076b565b600090505b92915050565b600260009054906101000a900473ffffffffffffffffffffffffffffffffffffffff1673ffffffffffffffffffffffffffffffffffffffff163373ffffffffffffffffffffffffffffffffffffffff161415156107cd57600080fd5b80600760006101000a81548160ff02191690831515021790555050565b600460009054906101000a900473ffffffffffffffffffffffffffffffffffffffff1681565b60008060011515600760009054906101000a900460ff16151514151561083557600080fd5b600460009054906101000a900473ffffffffffffffffffffffffffffffffffffffff169150831561097f576000806001015411151561087357600080fd5b348314151561088157600080fd5b61088c6001346106d8565b90508173ffffffffffffffffffffffffffffffffffffffff1663a9059cbb33836000604051602001526040518363ffffffff167c0100000000000000000000000000000000000000000000000000000000028152600401808373ffffffffffffffffffffffffffffffffffffffff1673ffffffffffffffffffffffffffffffffffffffff16815260200182815260200192505050602060405180830381600087803b151561093957600080fd5b6102c65a03f1151561094a57600080fd5b505050604051805190505080600060010160008282540392505081905550346000800160008282540192505081905550610b00565b6000806000015411151561099257600080fd5b8173ffffffffffffffffffffffffffffffffffffffff166323b872dd3330866000604051602001526040518463ffffffff167c0100000000000000000000000000000000000000000000000000000000028152600401808473ffffffffffffffffffffffffffffffffffffffff1673ffffffffffffffffffffffffffffffffffffffff1681526020018373ffffffffffffffffffffffffffffffffffffffff1673ffffffffffffffffffffffffffffffffffffffff1681526020018281526020019350505050602060405180830381600087803b1515610a7157600080fd5b6102c65a03f11515610a8257600080fd5b5050506040518051905050610a986000846106d8565b90503373ffffffffffffffffffffffffffffffffffffffff166108fc829081150290604051600060405180830381858888f193505050501515610ada57600080fd5b826000600101600082825401925050819055508060008001600082825403925050819055505b50505050565b600260009054906101000a900473ffffffffffffffffffffffffffffffffffffffff1681565b73eeeeeeeeeeeeeeeeeeeeeeeeeeeeeeeeeeeeeeee81565b60008060000154908060010154905082565b600260009054906101000a900473ffffffffffffffffffffffffffffffffffffffff1673ffffffffffffffffffffffffffffffffffffffff163373ffffffffffffffffffffffffffffffffffffffff16141515610bb257600080fd5b60008210158015610bc4575060008110155b1515610bcf57600080fd5b81600581905550806006819055505050565b600554815600a165627a7a723058206ce14861cf23127ed52484aa40f52092451555915e7e5f40499dc26896a31d460029",
  "source": "pragma solidity 0.4.17;\r\n\r\nimport {TestToken} from \"./TestToken.sol\";\r\n\r\ncontract Reserve {\r\n    struct Fund {\r\n        uint ethStored;\r\n        uint tokenStored;\r\n    }\r\n    \r\n    Fund public funds;\r\n    \r\n    address public owner;\r\n    uint public decimals;\r\n    uint public constant inWei = 10 ** 18;\r\n    address public supportToken;\r\n    uint public buyRate = 10; \r\n    uint public sellRate = 10;\r\n    address public constant ETH_ADDRESS = 0xeeeeeeeeeeeeeeeeeeeeeeeeeeeeeeeeeeeeeeee;\r\n    bool public trade = true;\r\n    \r\n    function Reserve(address _supportToken) public {\r\n        owner = msg.sender;\r\n        supportToken = _supportToken;\r\n        TestToken tokenContract = TestToken(supportToken);\r\n        decimals = tokenContract.decimals();\r\n        funds.ethStored = 0;\r\n        funds.tokenStored = 1000000 * (10 ** decimals);\r\n    }\r\n\r\n    function() public payable {\r\n        funds.ethStored += msg.value;\r\n    }\r\n    \r\n    function withdrawFunds(address _token, uint _amount, address _destAddress) public onlyOwner{\r\n        if(_token == ETH_ADDRESS){           \r\n            require(funds.ethStored > 0 && _amount > 0 && _amount <= funds.ethStored);\r\n            _destAddress.transfer(_amount);\r\n            funds.ethStored -= _amount;\r\n        }\r\n        if(_token == supportToken){\r\n            require(funds.tokenStored > 0 && _amount > 0  && _amount <= funds.tokenStored);\r\n            TestToken tokenContract = TestToken(supportToken);\r\n            tokenContract.transfer(_destAddress, _amount);\r\n            funds.tokenStored -= _amount;\r\n        }\r\n    }\r\n    \r\n    function setExchangeRates(uint _buyRate, uint _sellRate) public onlyOwner {\r\n        require(_buyRate >= 0 && _sellRate >= 0 );\r\n        buyRate = _buyRate;\r\n        sellRate = _sellRate;\r\n    }\r\n    \r\n    function getExchangeRate(bool _isBuy, uint _srcAmount) public view returns(uint){\r\n        if(_isBuy) {\r\n            if(funds.tokenStored > 0){\r\n                return (((_srcAmount * (10**decimals) * (10 ** decimals)) / inWei)  / buyRate) ;\r\n            }\r\n            return 0;\r\n        }else {\r\n            if(funds.ethStored > 0){\r\n                return ((_srcAmount * (10**decimals) * inWei) )/ (sellRate * (10**decimals));\r\n            }\r\n            return 0;\r\n        }\r\n    }\r\n\r\n    function toDecimal(uint _value) private view returns(uint) {\r\n        return _value * (10 ** decimals);\r\n    }\r\n    \r\n    function exchange(bool _isBuy, uint _srcAmount) public payable onlyTradable {\r\n        TestToken tokenContract = TestToken(supportToken);\r\n        uint transferAmount;\r\n        if(_isBuy){\r\n            require(funds.tokenStored > 0);\r\n            require(_srcAmount == msg.value);\r\n            transferAmount = getExchangeRate(true, msg.value);\r\n            tokenContract.transfer(msg.sender, transferAmount);\r\n            funds.tokenStored -= transferAmount;\r\n            funds.ethStored += msg.value;\r\n        } else {\r\n            require(funds.ethStored > 0);\r\n            tokenContract.transferFrom(msg.sender, address(this), _srcAmount);\r\n            transferAmount = getExchangeRate(false, _srcAmount);\r\n            msg.sender.transfer(transferAmount);\r\n            funds.tokenStored += _srcAmount;\r\n            funds.ethStored -= transferAmount;\r\n        }\r\n    }\r\n\r\n    function setTradable(bool _flag) public onlyOwner {\r\n        trade = _flag;\r\n    }\r\n    \r\n    modifier onlyOwner {\r\n        require(msg.sender == owner);\r\n        _;\r\n    }\r\n\r\n    modifier onlyTradable {\r\n        require(trade == true);\r\n        _;\r\n    }\r\n    \r\n}",
  "sourcePath": "C:\\Users\\My PC\\Desktop\\TestCAP\\contracts\\Reserve.sol",
  "compiler": {
    "name": "solc",
    "version": "0.4.17+commit.bdeb9e52.Emscripten.clang"
  },
  "schemaVersion": "3.1.0",
  "updatedAt": "2020-07-27T03:56:46.449Z",
  "networkType": "ethereum",
  "devdoc": {
    "methods": {}
  },
  "userdoc": {
    "methods": {}
  }
}