{
  "contractName": "Reserve",
  "abi": [
    {
      "constant": true,
      "inputs": [],
      "name": "sellRate",
      "outputs": [
        {
          "name": "",
          "type": "uint256"
        }
      ],
      "payable": false,
      "stateMutability": "view",
      "type": "function"
    },
    {
      "constant": true,
      "inputs": [],
      "name": "supportToken",
      "outputs": [
        {
          "name": "",
          "type": "address"
        }
      ],
      "payable": false,
      "stateMutability": "view",
      "type": "function"
    },
    {
      "constant": true,
      "inputs": [],
      "name": "owner",
      "outputs": [
        {
          "name": "",
          "type": "address"
        }
      ],
      "payable": false,
      "stateMutability": "view",
      "type": "function"
    },
    {
      "constant": true,
      "inputs": [],
      "name": "ETH_ADDRESS",
      "outputs": [
        {
          "name": "",
          "type": "address"
        }
      ],
      "payable": false,
      "stateMutability": "view",
      "type": "function"
    },
    {
      "constant": true,
      "inputs": [],
      "name": "funds",
      "outputs": [
        {
          "name": "ethStored",
          "type": "uint256"
        },
        {
          "name": "tokenStored",
          "type": "uint256"
        }
      ],
      "payable": false,
      "stateMutability": "view",
      "type": "function"
    },
    {
      "constant": true,
      "inputs": [],
      "name": "buyRate",
      "outputs": [
        {
          "name": "",
          "type": "uint256"
        }
      ],
      "payable": false,
      "stateMutability": "view",
      "type": "function"
    },
    {
      "inputs": [
        {
          "name": "_supportToken",
          "type": "address"
        }
      ],
      "payable": false,
      "stateMutability": "nonpayable",
      "type": "constructor"
    },
    {
      "payable": true,
      "stateMutability": "payable",
      "type": "fallback"
    },
    {
      "constant": false,
      "inputs": [
        {
          "name": "_token",
          "type": "address"
        },
        {
          "name": "_amount",
          "type": "uint256"
        },
        {
          "name": "_destAddress",
          "type": "address"
        }
      ],
      "name": "withdrawFunds",
      "outputs": [],
      "payable": false,
      "stateMutability": "nonpayable",
      "type": "function"
    },
    {
      "constant": false,
      "inputs": [
        {
          "name": "_buyRate",
          "type": "uint256"
        },
        {
          "name": "_sellRate",
          "type": "uint256"
        }
      ],
      "name": "setExchangeRates",
      "outputs": [],
      "payable": false,
      "stateMutability": "nonpayable",
      "type": "function"
    },
    {
      "constant": true,
      "inputs": [
        {
          "name": "_isBuy",
          "type": "bool"
        },
        {
          "name": "_srcAmount",
          "type": "uint256"
        }
      ],
      "name": "getExchangeRate",
      "outputs": [
        {
          "name": "",
          "type": "uint256"
        }
      ],
      "payable": false,
      "stateMutability": "view",
      "type": "function"
    },
    {
      "constant": false,
      "inputs": [
        {
          "name": "_isBuy",
          "type": "bool"
        },
        {
          "name": "_srcAmount",
          "type": "uint256"
        }
      ],
      "name": "exchange",
      "outputs": [],
      "payable": true,
      "stateMutability": "payable",
      "type": "function"
    }
  ],
  "bytecode": "0x6060604052600a600455600a600555341561001957600080fd5b604051602080610b548339810160405280805190602001909190505033600260006101000a81548173ffffffffffffffffffffffffffffffffffffffff021916908373ffffffffffffffffffffffffffffffffffffffff16021790555080600360006101000a81548173ffffffffffffffffffffffffffffffffffffffff021916908373ffffffffffffffffffffffffffffffffffffffff16021790555060008060000181905550620f424060006001018190555050610a76806100de6000396000f300606060405236156100a2576000357c0100000000000000000000000000000000000000000000000000000000900463ffffffff16806347c6b45e146100b65780636217229b1461011757806377ed0ad614610140578063845ad81314610182578063874fc5f8146101d75780638da5cb5b146101fa578063a734f06e1461024f578063c89f2ce4146102a4578063e637a44b146102d4578063fc37987b14610300575b346000800160008282540192505081905550005b34156100c157600080fd5b610115600480803573ffffffffffffffffffffffffffffffffffffffff1690602001909190803590602001909190803573ffffffffffffffffffffffffffffffffffffffff16906020019091905050610329565b005b341561012257600080fd5b61012a6105ee565b6040518082815260200191505060405180910390f35b341561014b57600080fd5b61016c600480803515159060200190919080359060200190919050506105f4565b6040518082815260200191505060405180910390f35b341561018d57600080fd5b61019561064b565b604051808273ffffffffffffffffffffffffffffffffffffffff1673ffffffffffffffffffffffffffffffffffffffff16815260200191505060405180910390f35b6101f860048080351515906020019091908035906020019091905050610671565b005b341561020557600080fd5b61020d610969565b604051808273ffffffffffffffffffffffffffffffffffffffff1673ffffffffffffffffffffffffffffffffffffffff16815260200191505060405180910390f35b341561025a57600080fd5b61026261098f565b604051808273ffffffffffffffffffffffffffffffffffffffff1673ffffffffffffffffffffffffffffffffffffffff16815260200191505060405180910390f35b34156102af57600080fd5b6102b76109a7565b604051808381526020018281526020019250505060405180910390f35b34156102df57600080fd5b6102fe60048080359060200190919080359060200190919050506109b9565b005b341561030b57600080fd5b610313610a44565b6040518082815260200191505060405180910390f35b600080600260009054906101000a900473ffffffffffffffffffffffffffffffffffffffff1673ffffffffffffffffffffffffffffffffffffffff163373ffffffffffffffffffffffffffffffffffffffff1614151561038857600080fd5b73eeeeeeeeeeeeeeeeeeeeeeeeeeeeeeeeeeeeeeee73ffffffffffffffffffffffffffffffffffffffff168573ffffffffffffffffffffffffffffffffffffffff16141561046157670de0b6b3a764000084029150600080600001541180156103f15750600082115b8015610401575060008001548211155b151561040c57600080fd5b8273ffffffffffffffffffffffffffffffffffffffff166108fc8386029081150290604051600060405180830381858888f19350505050151561044e57600080fd5b8160008001600082825403925050819055505b600360009054906101000a900473ffffffffffffffffffffffffffffffffffffffff1673ffffffffffffffffffffffffffffffffffffffff168573ffffffffffffffffffffffffffffffffffffffff1614156105e757600080600101541180156104cb5750600084115b80156104dc57506000600101548411155b15156104e757600080fd5b600360009054906101000a900473ffffffffffffffffffffffffffffffffffffffff1690508073ffffffffffffffffffffffffffffffffffffffff1663a9059cbb84866000604051602001526040518363ffffffff167c0100000000000000000000000000000000000000000000000000000000028152600401808373ffffffffffffffffffffffffffffffffffffffff1673ffffffffffffffffffffffffffffffffffffffff16815260200182815260200192505050602060405180830381600087803b15156105b757600080fd5b6102c65a03f115156105c857600080fd5b5050506040518051905050836000600101600082825403925050819055505b5050505050565b60055481565b6000821561061e576000806001015411156106155781600454029050610645565b60009050610645565b600080600001541115610640576005548281151561063857fe5b049050610645565b600090505b92915050565b600360009054906101000a900473ffffffffffffffffffffffffffffffffffffffff1681565b6000600360009054906101000a900473ffffffffffffffffffffffffffffffffffffffff16905082156107c257600080600101541115156106b157600080fd5b34670de0b6b3a764000083021415156106c957600080fd5b8073ffffffffffffffffffffffffffffffffffffffff1663a9059cbb3360045485026000604051602001526040518363ffffffff167c0100000000000000000000000000000000000000000000000000000000028152600401808373ffffffffffffffffffffffffffffffffffffffff1673ffffffffffffffffffffffffffffffffffffffff16815260200182815260200192505050602060405180830381600087803b151561077857600080fd5b6102c65a03f1151561078957600080fd5b50505060405180519050506004548202600060010160008282540392505081905550346000800160008282540192505081905550610964565b600080600001541115156107d557600080fd5b8073ffffffffffffffffffffffffffffffffffffffff166323b872dd3330856000604051602001526040518463ffffffff167c0100000000000000000000000000000000000000000000000000000000028152600401808473ffffffffffffffffffffffffffffffffffffffff1673ffffffffffffffffffffffffffffffffffffffff1681526020018373ffffffffffffffffffffffffffffffffffffffff1673ffffffffffffffffffffffffffffffffffffffff1681526020018281526020019350505050602060405180830381600087803b15156108b457600080fd5b6102c65a03f115156108c557600080fd5b50505060405180519050503373ffffffffffffffffffffffffffffffffffffffff166108fc600554670de0b6b3a7640000850281151561090157fe5b049081150290604051600060405180830381858888f19350505050151561092757600080fd5b81600060010160008282540192505081905550600554670de0b6b3a7640000830281151561095157fe5b0460008001600082825403925050819055505b505050565b600260009054906101000a900473ffffffffffffffffffffffffffffffffffffffff1681565b73eeeeeeeeeeeeeeeeeeeeeeeeeeeeeeeeeeeeeeee81565b60008060000154908060010154905082565b600260009054906101000a900473ffffffffffffffffffffffffffffffffffffffff1673ffffffffffffffffffffffffffffffffffffffff163373ffffffffffffffffffffffffffffffffffffffff16141515610a1557600080fd5b60008210158015610a27575060008110155b1515610a3257600080fd5b81600481905550806005819055505050565b600454815600a165627a7a72305820c770a4e5a5041f3c973a182e32aa51f8b924036313ccda399b6e79a2805c53f00029",
  "source": "pragma solidity 0.4.17;\r\n\r\nimport {TestToken} from \"./TestToken.sol\";\r\n\r\ncontract Reserve {\r\n    struct Fund {\r\n        uint ethStored;\r\n        uint tokenStored;\r\n    }\r\n    \r\n    Fund public funds;\r\n    \r\n    address public owner;\r\n    address public supportToken;\r\n    uint public buyRate = 10;\r\n    uint public sellRate = 10;\r\n    address public constant ETH_ADDRESS = 0xeeeeeeeeeeeeeeeeeeeeeeeeeeeeeeeeeeeeeeee;\r\n    \r\n    function Reserve(address _supportToken) public {\r\n        owner = msg.sender;\r\n        supportToken = _supportToken;\r\n        funds.ethStored = 0;\r\n        funds.tokenStored = 1000000;\r\n    }\r\n\r\n    function() public payable {\r\n        funds.ethStored += msg.value;\r\n    }\r\n    \r\n    function withdrawFunds(address _token, uint _amount, address _destAddress) public onlyOwner{\r\n        if(_token == ETH_ADDRESS){\r\n            uint amountInWei = _amount * 10**18;\r\n            require(funds.ethStored > 0 && amountInWei > 0 && amountInWei <= funds.ethStored);\r\n            _destAddress.transfer(_amount * amountInWei);\r\n            funds.ethStored -= amountInWei;\r\n        }\r\n        if(_token == supportToken){\r\n            require(funds.tokenStored > 0 && _amount > 0  && _amount <= funds.tokenStored);\r\n            TestToken tokenContract = TestToken(supportToken);\r\n            tokenContract.transfer(_destAddress, _amount);\r\n            funds.tokenStored -= _amount;\r\n        }\r\n    }\r\n    \r\n    function setExchangeRates(uint _buyRate, uint _sellRate) public onlyOwner {\r\n        require(_buyRate >= 0 && _sellRate >= 0 );\r\n        buyRate = _buyRate;\r\n        sellRate = _sellRate;\r\n    }\r\n    \r\n    function getExchangeRate(bool _isBuy, uint _srcAmount) public view returns(uint){\r\n        if(_isBuy) {\r\n            if(funds.tokenStored > 0){\r\n                return buyRate * _srcAmount;\r\n            }\r\n            return 0;\r\n        }else {\r\n            if(funds.ethStored > 0){\r\n                return _srcAmount / sellRate;\r\n            }\r\n            return 0;\r\n        }\r\n    }\r\n    \r\n    function exchange(bool _isBuy, uint _srcAmount) public payable {\r\n        TestToken tokenContract = TestToken(supportToken);\r\n        if(_isBuy){\r\n            require(funds.tokenStored > 0);\r\n            require(_srcAmount * 10**18 == msg.value);\r\n            tokenContract.transfer(msg.sender, _srcAmount * buyRate );\r\n            funds.tokenStored -= (_srcAmount * buyRate);\r\n            funds.ethStored += msg.value;\r\n        } else {\r\n            require(funds.ethStored > 0);\r\n            tokenContract.transferFrom(msg.sender, address(this), _srcAmount);\r\n            msg.sender.transfer((_srcAmount * 10**18)/sellRate);\r\n            funds.tokenStored += _srcAmount;\r\n            funds.ethStored -= ((_srcAmount * 10**18)/sellRate);\r\n        }\r\n    }\r\n    \r\n    modifier onlyOwner {\r\n        require(msg.sender == owner);\r\n        _;\r\n    }\r\n    \r\n}",
  "sourcePath": "C:\\Users\\My PC\\Desktop\\TestCAP\\contracts\\Reserve.sol",
  "compiler": {
    "name": "solc",
    "version": "0.4.17+commit.bdeb9e52.Emscripten.clang"
  },
  "schemaVersion": "3.1.0",
  "updatedAt": "2020-06-23T17:15:49.062Z",
  "networkType": "ethereum",
  "devdoc": {
    "methods": {}
  },
  "userdoc": {
    "methods": {}
  }
}