{
  "contractName": "Reserve",
  "abi": [
    {
      "constant": true,
      "inputs": [],
      "name": "decimals",
      "outputs": [
        {
          "name": "",
          "type": "uint256"
        }
      ],
      "payable": false,
      "stateMutability": "view",
      "type": "function"
    },
    {
      "constant": true,
      "inputs": [],
      "name": "sellRate",
      "outputs": [
        {
          "name": "",
          "type": "uint256"
        }
      ],
      "payable": false,
      "stateMutability": "view",
      "type": "function"
    },
    {
      "constant": true,
      "inputs": [],
      "name": "inWei",
      "outputs": [
        {
          "name": "",
          "type": "uint256"
        }
      ],
      "payable": false,
      "stateMutability": "view",
      "type": "function"
    },
    {
      "constant": true,
      "inputs": [],
      "name": "supportToken",
      "outputs": [
        {
          "name": "",
          "type": "address"
        }
      ],
      "payable": false,
      "stateMutability": "view",
      "type": "function"
    },
    {
      "constant": true,
      "inputs": [],
      "name": "owner",
      "outputs": [
        {
          "name": "",
          "type": "address"
        }
      ],
      "payable": false,
      "stateMutability": "view",
      "type": "function"
    },
    {
      "constant": true,
      "inputs": [],
      "name": "ETH_ADDRESS",
      "outputs": [
        {
          "name": "",
          "type": "address"
        }
      ],
      "payable": false,
      "stateMutability": "view",
      "type": "function"
    },
    {
      "constant": true,
      "inputs": [],
      "name": "funds",
      "outputs": [
        {
          "name": "ethStored",
          "type": "uint256"
        },
        {
          "name": "tokenStored",
          "type": "uint256"
        }
      ],
      "payable": false,
      "stateMutability": "view",
      "type": "function"
    },
    {
      "constant": true,
      "inputs": [],
      "name": "buyRate",
      "outputs": [
        {
          "name": "",
          "type": "uint256"
        }
      ],
      "payable": false,
      "stateMutability": "view",
      "type": "function"
    },
    {
      "inputs": [
        {
          "name": "_supportToken",
          "type": "address"
        }
      ],
      "payable": false,
      "stateMutability": "nonpayable",
      "type": "constructor"
    },
    {
      "payable": true,
      "stateMutability": "payable",
      "type": "fallback"
    },
    {
      "constant": false,
      "inputs": [
        {
          "name": "_token",
          "type": "address"
        },
        {
          "name": "_amount",
          "type": "uint256"
        },
        {
          "name": "_destAddress",
          "type": "address"
        }
      ],
      "name": "withdrawFunds",
      "outputs": [],
      "payable": false,
      "stateMutability": "nonpayable",
      "type": "function"
    },
    {
      "constant": false,
      "inputs": [
        {
          "name": "_buyRate",
          "type": "uint256"
        },
        {
          "name": "_sellRate",
          "type": "uint256"
        }
      ],
      "name": "setExchangeRates",
      "outputs": [],
      "payable": false,
      "stateMutability": "nonpayable",
      "type": "function"
    },
    {
      "constant": true,
      "inputs": [
        {
          "name": "_isBuy",
          "type": "bool"
        },
        {
          "name": "_srcAmount",
          "type": "uint256"
        }
      ],
      "name": "getExchangeRate",
      "outputs": [
        {
          "name": "",
          "type": "uint256"
        }
      ],
      "payable": false,
      "stateMutability": "view",
      "type": "function"
    },
    {
      "constant": false,
      "inputs": [
        {
          "name": "_isBuy",
          "type": "bool"
        },
        {
          "name": "_srcAmount",
          "type": "uint256"
        }
      ],
      "name": "exchange",
      "outputs": [],
      "payable": true,
      "stateMutability": "payable",
      "type": "function"
    }
  ],
  "bytecode": "0x6060604052600a600555600a600655341561001957600080fd5b604051602080610cb483398101604052808051906020019091905050600033600260006101000a81548173ffffffffffffffffffffffffffffffffffffffff021916908373ffffffffffffffffffffffffffffffffffffffff16021790555081600460006101000a81548173ffffffffffffffffffffffffffffffffffffffff021916908373ffffffffffffffffffffffffffffffffffffffff160217905550600460009054906101000a900473ffffffffffffffffffffffffffffffffffffffff1690508073ffffffffffffffffffffffffffffffffffffffff1663313ce5676000604051602001526040518163ffffffff167c0100000000000000000000000000000000000000000000000000000000028152600401602060405180830381600087803b151561014a57600080fd5b6102c65a03f1151561015b57600080fd5b5050506040518051905060038190555060008060000181905550600354600a0a620f4240026000600101819055505050610b1a8061019a6000396000f300606060405236156100b8576000357c0100000000000000000000000000000000000000000000000000000000900463ffffffff168063313ce567146100cc57806347c6b45e146100f55780636217229b146101565780636a9637751461017f57806377ed0ad6146101a8578063845ad813146101ea578063874fc5f81461023f5780638da5cb5b14610262578063a734f06e146102b7578063c89f2ce41461030c578063e637a44b1461033c578063fc37987b14610368575b346000800160008282540192505081905550005b34156100d757600080fd5b6100df610391565b6040518082815260200191505060405180910390f35b341561010057600080fd5b610154600480803573ffffffffffffffffffffffffffffffffffffffff1690602001909190803590602001909190803573ffffffffffffffffffffffffffffffffffffffff16906020019091905050610397565b005b341561016157600080fd5b610169610668565b6040518082815260200191505060405180910390f35b341561018a57600080fd5b61019261066e565b6040518082815260200191505060405180910390f35b34156101b357600080fd5b6101d46004808035151590602001909190803590602001909190505061067a565b6040518082815260200191505060405180910390f35b34156101f557600080fd5b6101fd610713565b604051808273ffffffffffffffffffffffffffffffffffffffff1673ffffffffffffffffffffffffffffffffffffffff16815260200191505060405180910390f35b61026060048080351515906020019091908035906020019091905050610739565b005b341561026d57600080fd5b610275610a0d565b604051808273ffffffffffffffffffffffffffffffffffffffff1673ffffffffffffffffffffffffffffffffffffffff16815260200191505060405180910390f35b34156102c257600080fd5b6102ca610a33565b604051808273ffffffffffffffffffffffffffffffffffffffff1673ffffffffffffffffffffffffffffffffffffffff16815260200191505060405180910390f35b341561031757600080fd5b61031f610a4b565b604051808381526020018281526020019250505060405180910390f35b341561034757600080fd5b6103666004808035906020019091908035906020019091905050610a5d565b005b341561037357600080fd5b61037b610ae8565b6040518082815260200191505060405180910390f35b60035481565b600080600260009054906101000a900473ffffffffffffffffffffffffffffffffffffffff1673ffffffffffffffffffffffffffffffffffffffff163373ffffffffffffffffffffffffffffffffffffffff161415156103f657600080fd5b73eeeeeeeeeeeeeeeeeeeeeeeeeeeeeeeeeeeeeeee73ffffffffffffffffffffffffffffffffffffffff168573ffffffffffffffffffffffffffffffffffffffff1614156104cd57670de0b6b3a7640000840291506000806000015411801561045f5750600082115b801561046f575060008001548211155b151561047a57600080fd5b8273ffffffffffffffffffffffffffffffffffffffff166108fc839081150290604051600060405180830381858888f1935050505015156104ba57600080fd5b8160008001600082825403925050819055505b600460009054906101000a900473ffffffffffffffffffffffffffffffffffffffff1673ffffffffffffffffffffffffffffffffffffffff168573ffffffffffffffffffffffffffffffffffffffff16141561066157600080600101541180156105375750600084115b801561054857506000600101548411155b151561055357600080fd5b600460009054906101000a900473ffffffffffffffffffffffffffffffffffffffff1690508073ffffffffffffffffffffffffffffffffffffffff1663a9059cbb84600354600a0a87026000604051602001526040518363ffffffff167c0100000000000000000000000000000000000000000000000000000000028152600401808373ffffffffffffffffffffffffffffffffffffffff1673ffffffffffffffffffffffffffffffffffffffff16815260200182815260200192505050602060405180830381600087803b151561062a57600080fd5b6102c65a03f1151561063b57600080fd5b5050506040518051905050600354600a0a84026000600101600082825403925050819055505b5050505050565b60065481565b670de0b6b3a764000081565b600082156106ce576000806001015411156106c557600554670de0b6b3a7640000600354600a0a600354600a0a8502028115156106b357fe5b048115156106bd57fe5b04905061070d565b6000905061070d565b60008060000154111561070857600354600a0a60065402670de0b6b3a7640000600354600a0a84020281151561070057fe5b04905061070d565b600090505b92915050565b600460009054906101000a900473ffffffffffffffffffffffffffffffffffffffff1681565b600080600460009054906101000a900473ffffffffffffffffffffffffffffffffffffffff1691508315610886576000806001015411151561077a57600080fd5b348314151561078857600080fd5b61079360013461067a565b90508173ffffffffffffffffffffffffffffffffffffffff1663a9059cbb33836000604051602001526040518363ffffffff167c0100000000000000000000000000000000000000000000000000000000028152600401808373ffffffffffffffffffffffffffffffffffffffff1673ffffffffffffffffffffffffffffffffffffffff16815260200182815260200192505050602060405180830381600087803b151561084057600080fd5b6102c65a03f1151561085157600080fd5b505050604051805190505080600060010160008282540392505081905550346000800160008282540192505081905550610a07565b6000806000015411151561089957600080fd5b8173ffffffffffffffffffffffffffffffffffffffff166323b872dd3330866000604051602001526040518463ffffffff167c0100000000000000000000000000000000000000000000000000000000028152600401808473ffffffffffffffffffffffffffffffffffffffff1673ffffffffffffffffffffffffffffffffffffffff1681526020018373ffffffffffffffffffffffffffffffffffffffff1673ffffffffffffffffffffffffffffffffffffffff1681526020018281526020019350505050602060405180830381600087803b151561097857600080fd5b6102c65a03f1151561098957600080fd5b505050604051805190505061099f60008461067a565b90503373ffffffffffffffffffffffffffffffffffffffff166108fc829081150290604051600060405180830381858888f1935050505015156109e157600080fd5b826000600101600082825401925050819055508060008001600082825403925050819055505b50505050565b600260009054906101000a900473ffffffffffffffffffffffffffffffffffffffff1681565b73eeeeeeeeeeeeeeeeeeeeeeeeeeeeeeeeeeeeeeee81565b60008060000154908060010154905082565b600260009054906101000a900473ffffffffffffffffffffffffffffffffffffffff1673ffffffffffffffffffffffffffffffffffffffff163373ffffffffffffffffffffffffffffffffffffffff16141515610ab957600080fd5b60008210158015610acb575060008110155b1515610ad657600080fd5b81600581905550806006819055505050565b600554815600a165627a7a72305820a3610c30072339cb3d951dbeaceea2368b41e9567ee7cd1eecffd5a46b53be160029",
  "source": "pragma solidity 0.4.17;\r\n\r\nimport {TestToken} from \"./TestToken.sol\";\r\n\r\ncontract Reserve {\r\n    struct Fund {\r\n        uint ethStored;\r\n        uint tokenStored;\r\n    }\r\n    \r\n    Fund public funds;\r\n    \r\n    address public owner;\r\n    uint public decimals;\r\n    uint public constant inWei = 10 ** 18;\r\n    address public supportToken;\r\n    uint public buyRate = 10; \r\n    uint public sellRate = 10;\r\n    address public constant ETH_ADDRESS = 0xeeeeeeeeeeeeeeeeeeeeeeeeeeeeeeeeeeeeeeee;\r\n    \r\n    function Reserve(address _supportToken) public {\r\n        owner = msg.sender;\r\n        supportToken = _supportToken;\r\n        TestToken tokenContract = TestToken(supportToken);\r\n        decimals = tokenContract.decimals();\r\n        funds.ethStored = 0;\r\n        funds.tokenStored = 1000000 * (10 ** decimals);\r\n    }\r\n\r\n    function() public payable {\r\n        funds.ethStored += msg.value;\r\n    }\r\n    \r\n    function withdrawFunds(address _token, uint _amount, address _destAddress) public onlyOwner{\r\n        if(_token == ETH_ADDRESS){\r\n            uint amountInWei = _amount * inWei;\r\n            require(funds.ethStored > 0 && amountInWei > 0 && amountInWei <= funds.ethStored);\r\n            _destAddress.transfer( amountInWei);\r\n            funds.ethStored -= amountInWei;\r\n        }\r\n        if(_token == supportToken){\r\n            require(funds.tokenStored > 0 && _amount > 0  && _amount <= funds.tokenStored);\r\n            TestToken tokenContract = TestToken(supportToken);\r\n            tokenContract.transfer(_destAddress, _amount * (10 ** decimals));\r\n            funds.tokenStored -= _amount * (10 ** decimals);\r\n        }\r\n    }\r\n    \r\n    function setExchangeRates(uint _buyRate, uint _sellRate) public onlyOwner {\r\n        require(_buyRate >= 0 && _sellRate >= 0 );\r\n        buyRate = _buyRate;\r\n        sellRate = _sellRate;\r\n    }\r\n    \r\n    function getExchangeRate(bool _isBuy, uint _srcAmount) public view returns(uint){\r\n        if(_isBuy) {\r\n            if(funds.tokenStored > 0){\r\n                return (((_srcAmount * (10**decimals) * (10 ** decimals)) / inWei)  / buyRate) ;\r\n            }\r\n            return 0;\r\n        }else {\r\n            if(funds.ethStored > 0){\r\n                return ((_srcAmount * (10**decimals) * inWei) )/ (sellRate * (10**decimals));\r\n            }\r\n            return 0;\r\n        }\r\n    }\r\n\r\n    function toDecimal(uint _value) private view returns(uint) {\r\n        return _value * (10 ** decimals);\r\n    }\r\n    \r\n    function exchange(bool _isBuy, uint _srcAmount) public payable {\r\n        TestToken tokenContract = TestToken(supportToken);\r\n        uint transferAmount;\r\n        if(_isBuy){\r\n            require(funds.tokenStored > 0);\r\n            require(_srcAmount == msg.value);\r\n            transferAmount = getExchangeRate(true, msg.value);\r\n            tokenContract.transfer(msg.sender, transferAmount);\r\n            funds.tokenStored -= transferAmount;\r\n            funds.ethStored += msg.value;\r\n        } else {\r\n            require(funds.ethStored > 0);\r\n            tokenContract.transferFrom(msg.sender, address(this), _srcAmount);\r\n            transferAmount = getExchangeRate(false, _srcAmount);\r\n            msg.sender.transfer(transferAmount);\r\n            funds.tokenStored += _srcAmount;\r\n            funds.ethStored -= transferAmount;\r\n        }\r\n    }\r\n    \r\n    modifier onlyOwner {\r\n        require(msg.sender == owner);\r\n        _;\r\n    }\r\n    \r\n}",
  "sourcePath": "C:\\Users\\My PC\\Desktop\\TestCAP\\contracts\\Reserve.sol",
  "compiler": {
    "name": "solc",
    "version": "0.4.17+commit.bdeb9e52.Emscripten.clang"
  },
  "schemaVersion": "3.1.0",
  "updatedAt": "2020-07-07T04:55:18.379Z",
  "networkType": "ethereum",
  "devdoc": {
    "methods": {}
  },
  "userdoc": {
    "methods": {}
  }
}