{
  "contractName": "TokenB",
  "abi": [
    {
      "constant": true,
      "inputs": [],
      "name": "name",
      "outputs": [
        {
          "name": "",
          "type": "string"
        }
      ],
      "payable": false,
      "stateMutability": "view",
      "type": "function"
    },
    {
      "constant": false,
      "inputs": [
        {
          "name": "_spender",
          "type": "address"
        },
        {
          "name": "_value",
          "type": "uint256"
        }
      ],
      "name": "approve",
      "outputs": [
        {
          "name": "",
          "type": "bool"
        }
      ],
      "payable": false,
      "stateMutability": "nonpayable",
      "type": "function"
    },
    {
      "constant": true,
      "inputs": [],
      "name": "totalSupply",
      "outputs": [
        {
          "name": "",
          "type": "uint256"
        }
      ],
      "payable": false,
      "stateMutability": "view",
      "type": "function"
    },
    {
      "constant": false,
      "inputs": [
        {
          "name": "_from",
          "type": "address"
        },
        {
          "name": "_to",
          "type": "address"
        },
        {
          "name": "_value",
          "type": "uint256"
        }
      ],
      "name": "transferFrom",
      "outputs": [
        {
          "name": "",
          "type": "bool"
        }
      ],
      "payable": false,
      "stateMutability": "nonpayable",
      "type": "function"
    },
    {
      "constant": true,
      "inputs": [],
      "name": "INITIAL_SUPPLY",
      "outputs": [
        {
          "name": "",
          "type": "uint256"
        }
      ],
      "payable": false,
      "stateMutability": "view",
      "type": "function"
    },
    {
      "constant": true,
      "inputs": [],
      "name": "decimals",
      "outputs": [
        {
          "name": "",
          "type": "uint256"
        }
      ],
      "payable": false,
      "stateMutability": "view",
      "type": "function"
    },
    {
      "constant": true,
      "inputs": [
        {
          "name": "_owner",
          "type": "address"
        }
      ],
      "name": "balanceOf",
      "outputs": [
        {
          "name": "balance",
          "type": "uint256"
        }
      ],
      "payable": false,
      "stateMutability": "view",
      "type": "function"
    },
    {
      "constant": true,
      "inputs": [],
      "name": "symbol",
      "outputs": [
        {
          "name": "",
          "type": "string"
        }
      ],
      "payable": false,
      "stateMutability": "view",
      "type": "function"
    },
    {
      "constant": false,
      "inputs": [
        {
          "name": "_to",
          "type": "address"
        },
        {
          "name": "_value",
          "type": "uint256"
        }
      ],
      "name": "transfer",
      "outputs": [
        {
          "name": "",
          "type": "bool"
        }
      ],
      "payable": false,
      "stateMutability": "nonpayable",
      "type": "function"
    },
    {
      "constant": true,
      "inputs": [
        {
          "name": "_owner",
          "type": "address"
        },
        {
          "name": "_spender",
          "type": "address"
        }
      ],
      "name": "allowance",
      "outputs": [
        {
          "name": "remaining",
          "type": "uint256"
        }
      ],
      "payable": false,
      "stateMutability": "view",
      "type": "function"
    },
    {
      "anonymous": false,
      "inputs": [
        {
          "indexed": true,
          "name": "_burner",
          "type": "address"
        },
        {
          "indexed": false,
          "name": "_value",
          "type": "uint256"
        }
      ],
      "name": "Burn",
      "type": "event"
    },
    {
      "anonymous": false,
      "inputs": [
        {
          "indexed": true,
          "name": "owner",
          "type": "address"
        },
        {
          "indexed": true,
          "name": "spender",
          "type": "address"
        },
        {
          "indexed": false,
          "name": "value",
          "type": "uint256"
        }
      ],
      "name": "Approval",
      "type": "event"
    },
    {
      "anonymous": false,
      "inputs": [
        {
          "indexed": true,
          "name": "from",
          "type": "address"
        },
        {
          "indexed": true,
          "name": "to",
          "type": "address"
        },
        {
          "indexed": false,
          "name": "value",
          "type": "uint256"
        }
      ],
      "name": "Transfer",
      "type": "event"
    },
    {
      "constant": false,
      "inputs": [
        {
          "name": "_name",
          "type": "string"
        },
        {
          "name": "_symbol",
          "type": "string"
        },
        {
          "name": "_decimals",
          "type": "uint256"
        }
      ],
      "name": "TestB",
      "outputs": [],
      "payable": false,
      "stateMutability": "nonpayable",
      "type": "function"
    },
    {
      "constant": false,
      "inputs": [
        {
          "name": "_value",
          "type": "uint256"
        }
      ],
      "name": "burn",
      "outputs": [
        {
          "name": "",
          "type": "bool"
        }
      ],
      "payable": false,
      "stateMutability": "nonpayable",
      "type": "function"
    },
    {
      "constant": false,
      "inputs": [
        {
          "name": "_from",
          "type": "address"
        },
        {
          "name": "_value",
          "type": "uint256"
        }
      ],
      "name": "burnFrom",
      "outputs": [
        {
          "name": "",
          "type": "bool"
        }
      ],
      "payable": false,
      "stateMutability": "nonpayable",
      "type": "function"
    }
  ],
  "bytecode": "0x60606040526040805190810160405280600681526020017f546f6b656e4200000000000000000000000000000000000000000000000000008152506003908051906020019062000051929190620000d8565b506040805190810160405280600381526020017f544b420000000000000000000000000000000000000000000000000000000000815250600490805190602001906200009f929190620000d8565b5060126005557c03b58e88c75313ec9d329eaaa18fb92f75215b171000000000000000006006553415620000d257600080fd5b62000187565b828054600181600116156101000203166002900490600052602060002090601f016020900481019282601f106200011b57805160ff19168380011785556200014c565b828001600101855582156200014c579182015b828111156200014b5782518255916020019190600101906200012e565b5b5090506200015b91906200015f565b5090565b6200018491905b808211156200018057600081600090555060010162000166565b5090565b90565b61102780620001976000396000f300606060405236156100c3576000357c0100000000000000000000000000000000000000000000000000000000900463ffffffff16806306fdde03146100c8578063095ea7b31461015657806314bd2e4e146101b057806318160ddd1461025957806323b872dd146102825780632ff2e9dc146102fb578063313ce5671461032457806342966c681461034d57806370a082311461038857806379cc6790146103d557806395d89b411461042f578063a9059cbb146104bd578063dd62ed3e14610517575b600080fd5b34156100d357600080fd5b6100db610583565b6040518080602001828103825283818151815260200191508051906020019080838360005b8381101561011b578082015181840152602081019050610100565b50505050905090810190601f1680156101485780820380516001836020036101000a031916815260200191505b509250505060405180910390f35b341561016157600080fd5b610196600480803573ffffffffffffffffffffffffffffffffffffffff16906020019091908035906020019091905050610621565b604051808215151515815260200191505060405180910390f35b34156101bb57600080fd5b610257600480803590602001908201803590602001908080601f0160208091040260200160405190810160405280939291908181526020018383808284378201915050505050509190803590602001908201803590602001908080601f01602080910402602001604051908101604052809392919081815260200183838082843782019150505050505091908035906020019091905050610713565b005b341561026457600080fd5b61026c61079c565b6040518082815260200191505060405180910390f35b341561028d57600080fd5b6102e1600480803573ffffffffffffffffffffffffffffffffffffffff1690602001909190803573ffffffffffffffffffffffffffffffffffffffff169060200190919080359060200190919050506107a2565b604051808215151515815260200191505060405180910390f35b341561030657600080fd5b61030e610a5f565b6040518082815260200191505060405180910390f35b341561032f57600080fd5b610337610a65565b6040518082815260200191505060405180910390f35b341561035857600080fd5b61036e6004808035906020019091905050610a6b565b604051808215151515815260200191505060405180910390f35b341561039357600080fd5b6103bf600480803573ffffffffffffffffffffffffffffffffffffffff16906020019091905050610bda565b6040518082815260200191505060405180910390f35b34156103e057600080fd5b610415600480803573ffffffffffffffffffffffffffffffffffffffff16906020019091908035906020019091905050610c23565b604051808215151515815260200191505060405180910390f35b341561043a57600080fd5b610442610c42565b6040518080602001828103825283818151815260200191508051906020019080838360005b83811015610482578082015181840152602081019050610467565b50505050905090810190601f1680156104af5780820380516001836020036101000a031916815260200191505b509250505060405180910390f35b34156104c857600080fd5b6104fd600480803573ffffffffffffffffffffffffffffffffffffffff16906020019091908035906020019091905050610ce0565b604051808215151515815260200191505060405180910390f35b341561052257600080fd5b61056d600480803573ffffffffffffffffffffffffffffffffffffffff1690602001909190803573ffffffffffffffffffffffffffffffffffffffff16906020019091905050610e92565b6040518082815260200191505060405180910390f35b60038054600181600116156101000203166002900480601f0160208091040260200160405190810160405280929190818152602001828054600181600116156101000203166002900480156106195780601f106105ee57610100808354040283529160200191610619565b820191906000526020600020905b8154815290600101906020018083116105fc57829003601f168201915b505050505081565b600081600260003373ffffffffffffffffffffffffffffffffffffffff1673ffffffffffffffffffffffffffffffffffffffff16815260200190815260200160002060008573ffffffffffffffffffffffffffffffffffffffff1673ffffffffffffffffffffffffffffffffffffffff168152602001908152602001600020819055508273ffffffffffffffffffffffffffffffffffffffff163373ffffffffffffffffffffffffffffffffffffffff167f8c5be1e5ebec7d5bd14f71427d1e84f3dd0314c0f7b2291e5b200ac8c7c3b925846040518082815260200191505060405180910390a36001905092915050565b600654600081905550600654600160003373ffffffffffffffffffffffffffffffffffffffff1673ffffffffffffffffffffffffffffffffffffffff168152602001908152602001600020819055508260039080519060200190610778929190610f56565b50816004908051906020019061078f929190610f56565b5080600581905550505050565b60005481565b600080600260008673ffffffffffffffffffffffffffffffffffffffff1673ffffffffffffffffffffffffffffffffffffffff16815260200190815260200160002060003373ffffffffffffffffffffffffffffffffffffffff1673ffffffffffffffffffffffffffffffffffffffff1681526020019081526020016000205490508083111561083157600080fd5b61088383600160008773ffffffffffffffffffffffffffffffffffffffff1673ffffffffffffffffffffffffffffffffffffffff16815260200190815260200160002054610f1990919063ffffffff16565b600160008673ffffffffffffffffffffffffffffffffffffffff1673ffffffffffffffffffffffffffffffffffffffff1681526020019081526020016000208190555061091883600160008873ffffffffffffffffffffffffffffffffffffffff1673ffffffffffffffffffffffffffffffffffffffff16815260200190815260200160002054610f3a90919063ffffffff16565b600160008773ffffffffffffffffffffffffffffffffffffffff1673ffffffffffffffffffffffffffffffffffffffff1681526020019081526020016000208190555061096e8382610f3a90919063ffffffff16565b600260008773ffffffffffffffffffffffffffffffffffffffff1673ffffffffffffffffffffffffffffffffffffffff16815260200190815260200160002060003373ffffffffffffffffffffffffffffffffffffffff1673ffffffffffffffffffffffffffffffffffffffff168152602001908152602001600020819055508373ffffffffffffffffffffffffffffffffffffffff168573ffffffffffffffffffffffffffffffffffffffff167fddf252ad1be2c89b69c2b068fc378daa952ba7f163c4a11628f55a4df523b3ef856040518082815260200191505060405180910390a360019150509392505050565b60065481565b60055481565b6000610abf82600160003373ffffffffffffffffffffffffffffffffffffffff1673ffffffffffffffffffffffffffffffffffffffff16815260200190815260200160002054610f3a90919063ffffffff16565b600160003373ffffffffffffffffffffffffffffffffffffffff1673ffffffffffffffffffffffffffffffffffffffff16815260200190815260200160002081905550610b1782600054610f3a90919063ffffffff16565b6000819055503373ffffffffffffffffffffffffffffffffffffffff167fcc16f5dbb4873280815c1ee09dbd06736cffcc184412cf7a71a0fdb75d397ca5836040518082815260200191505060405180910390a2600073ffffffffffffffffffffffffffffffffffffffff163373ffffffffffffffffffffffffffffffffffffffff167fddf252ad1be2c89b69c2b068fc378daa952ba7f163c4a11628f55a4df523b3ef846040518082815260200191505060405180910390a360019050919050565b6000600160008373ffffffffffffffffffffffffffffffffffffffff1673ffffffffffffffffffffffffffffffffffffffff168152602001908152602001600020549050919050565b6000610c308333846107a2565b50610c3a82610a6b565b905092915050565b60048054600181600116156101000203166002900480601f016020809104026020016040519081016040528092919081815260200182805460018160011615610100020316600290048015610cd85780601f10610cad57610100808354040283529160200191610cd8565b820191906000526020600020905b815481529060010190602001808311610cbb57829003601f168201915b505050505081565b600060406004810160003690501015610cf857600080fd5b610d4a83600160003373ffffffffffffffffffffffffffffffffffffffff1673ffffffffffffffffffffffffffffffffffffffff16815260200190815260200160002054610f3a90919063ffffffff16565b600160003373ffffffffffffffffffffffffffffffffffffffff1673ffffffffffffffffffffffffffffffffffffffff16815260200190815260200160002081905550610ddf83600160008773ffffffffffffffffffffffffffffffffffffffff1673ffffffffffffffffffffffffffffffffffffffff16815260200190815260200160002054610f1990919063ffffffff16565b600160008673ffffffffffffffffffffffffffffffffffffffff1673ffffffffffffffffffffffffffffffffffffffff168152602001908152602001600020819055508373ffffffffffffffffffffffffffffffffffffffff163373ffffffffffffffffffffffffffffffffffffffff167fddf252ad1be2c89b69c2b068fc378daa952ba7f163c4a11628f55a4df523b3ef856040518082815260200191505060405180910390a3600191505092915050565b6000600260008473ffffffffffffffffffffffffffffffffffffffff1673ffffffffffffffffffffffffffffffffffffffff16815260200190815260200160002060008373ffffffffffffffffffffffffffffffffffffffff1673ffffffffffffffffffffffffffffffffffffffff16815260200190815260200160002054905092915050565b6000808284019050838110151515610f3057600080fd5b8091505092915050565b6000828211151515610f4b57600080fd5b818303905092915050565b828054600181600116156101000203166002900490600052602060002090601f016020900481019282601f10610f9757805160ff1916838001178555610fc5565b82800160010185558215610fc5579182015b82811115610fc4578251825591602001919060010190610fa9565b5b509050610fd29190610fd6565b5090565b610ff891905b80821115610ff4576000816000905550600101610fdc565b5090565b905600a165627a7a723058203ceefeebc0b3e87161ea301c20024277237186cff7cc394cd8714ebdb745fb830029",
  "source": "/**\n *Submitted for verification at Etherscan.io on 2018-05-21\n*/\n\npragma solidity ^0.4.17;\n\n// File: ../../ropsten/smart-contracts/contracts/mockContracts/TestToken.sol\n\n/* all this file is based on code from open zepplin\n * https://github.com/OpenZeppelin/zeppelin-solidity/tree/master/contracts/token */\n\n\n/**\n * Standard ERC20 token\n *\n * Based on code by FirstBlood:\n * https://github.com/Firstbloodio/token/blob/master/smart_contract/FirstBloodToken.sol\n */\n\n\n/**\n * Math operations with safety checks\n */\nlibrary SafeMath {\n    function mul(uint a, uint b) internal pure returns (uint) {\n        uint c = a * b;\n        require(a == 0 || c / a == b);\n        return c;\n    }\n\n    function div(uint a, uint b) internal pure returns (uint) {\n        require(b > 0);\n        uint c = a / b;\n        require(a == b * c + a % b);\n        return c;\n    }\n\n    function sub(uint a, uint b) internal pure returns (uint) {\n        require(b <= a);\n        return a - b;\n    }\n\n    function add(uint a, uint b) internal pure returns (uint) {\n        uint c = a + b;\n        require(c >= a);\n        return c;\n    }\n\n    function max64(uint64 a, uint64 b) internal pure returns (uint64) {\n        return a >= b ? a : b;\n    }\n\n    function min64(uint64 a, uint64 b) internal pure returns (uint64) {\n        return a < b ? a : b;\n    }\n\n    function max256(uint256 a, uint256 b) internal pure returns (uint256) {\n        return a >= b ? a : b;\n    }\n\n    function min256(uint256 a, uint256 b) internal pure returns (uint256) {\n        return a < b ? a : b;\n    }\n}\n\n\n////////////////////////////////////////////////////////////////////////////////\n\n/*\n * ERC20Basic\n * Simpler version of ERC20 interface\n * see https://github.com/ethereum/EIPs/issues/20\n */\ncontract ERC20Basic {\n    uint public totalSupply;\n    function balanceOf(address who) public view returns (uint);\n    function transfer(address to, uint value) public returns(bool);\n    event Transfer(address indexed from, address indexed to, uint value);\n}\n\n////////////////////////////////////////////////////////////////////////////////\n\n/*\n * ERC20 interface\n * see https://github.com/ethereum/EIPs/issues/20\n */\ncontract ERC20 is ERC20Basic {\n    function allowance(address owner, address spender) public view returns (uint);\n    function transferFrom(address from, address to, uint value) public returns(bool);\n    function approve(address spender, uint value) public returns(bool);\n    event Approval(address indexed owner, address indexed spender, uint value);\n}\n\n////////////////////////////////////////////////////////////////////////////////\n\n/*\n * Basic token\n * Basic version of StandardToken, with no allowances\n */\ncontract BasicToken is ERC20Basic {\n    using SafeMath for uint;\n\n    mapping(address => uint) balances;\n\n    /*\n     * Fix for the ERC20 short address attack\n     */\n    modifier onlyPayloadSize(uint size) {\n        if (msg.data.length < size + 4) {\n         revert();\n        }\n        _;\n    }\n\n    function transfer(address _to, uint _value)  public onlyPayloadSize(2 * 32) returns(bool) {\n        balances[msg.sender] = balances[msg.sender].sub(_value);\n        balances[_to] = balances[_to].add(_value);\n        Transfer(msg.sender, _to, _value);\n        return true;\n    }\n\n    function balanceOf(address _owner) public view returns (uint balance) {\n      return balances[_owner];\n    }\n}\n\n\n////////////////////////////////////////////////////////////////////////////////\n\n/**\n * Standard ERC20 token\n *\n * https://github.com/ethereum/EIPs/issues/20\n * Based on code by FirstBlood:\n * https://github.com/Firstbloodio/token/blob/master/smart_contract/FirstBloodToken.sol\n */\ncontract StandardToken is BasicToken, ERC20 {\n\n    mapping (address => mapping (address => uint)) allowed;\n\n    function transferFrom(address _from, address _to, uint _value) public returns(bool){\n\n        var _allowance = allowed[_from][msg.sender];\n\n        // Check is not needed because sub(_allowance, _value) will already revert if this condition is not met\n        if (_value > _allowance) revert();\n\n        balances[_to] = balances[_to].add(_value);\n        balances[_from] = balances[_from].sub(_value);\n        allowed[_from][msg.sender] = _allowance.sub(_value);\n        Transfer(_from, _to, _value);\n\n        return true;\n    }\n\n    function approve(address _spender, uint _value) public returns(bool){\n        allowed[msg.sender][_spender] = _value;\n        Approval(msg.sender, _spender, _value);\n\n        return true;\n    }\n\n    function allowance(address _owner, address _spender) public view returns (uint remaining) {\n        return allowed[_owner][_spender];\n    }\n}\n\n////////////////////////////////////////////////////////////////////////////////\n\n/*\n * SimpleToken\n *\n * Very simple ERC20 Token example, where all tokens are pre-assigned\n * to the creator. Note they can later distribute these tokens\n * as they wish using `transfer` and other `StandardToken` functions.\n */\n\ncontract TestToken is StandardToken {\n\n    string public name = \"Test\";\n    string public symbol = \"TST\";\n    uint public decimals = 18;\n    uint public INITIAL_SUPPLY = 10**(50+18);\n\n    function TestToken(string _name, string _symbol, uint _decimals) public {\n        totalSupply = INITIAL_SUPPLY;\n        balances[msg.sender] = INITIAL_SUPPLY;\n        name = _name;\n        symbol = _symbol;\n        decimals = _decimals;\n    }\n\n    event Burn(address indexed _burner, uint _value);\n\n    function burn(uint _value) public returns (bool) {\n        balances[msg.sender] = balances[msg.sender].sub(_value);\n        totalSupply = totalSupply.sub(_value);\n        Burn(msg.sender, _value);\n        Transfer(msg.sender, address(0x0), _value);\n        return true;\n    }\n\n    // save some gas by making only one contract call\n    function burnFrom(address _from, uint256 _value) public returns (bool) {\n        transferFrom( _from, msg.sender, _value );\n        return burn(_value);\n    }\n}\n\ncontract TestA is StandardToken {\n\n    string public name = \"TokenA\";\n    string public symbol = \"TKA\";\n    uint public decimals = 18;\n    uint public INITIAL_SUPPLY = 10**(50+18);\n\n    function TestA(string _name, string _symbol, uint _decimals) public {\n        totalSupply = INITIAL_SUPPLY;\n        balances[msg.sender] = INITIAL_SUPPLY;\n        name = _name;\n        symbol = _symbol;\n        decimals = _decimals;\n    }\n\n    event Burn(address indexed _burner, uint _value);\n\n    function burn(uint _value) public returns (bool) {\n        balances[msg.sender] = balances[msg.sender].sub(_value);\n        totalSupply = totalSupply.sub(_value);\n        Burn(msg.sender, _value);\n        Transfer(msg.sender, address(0x0), _value);\n        return true;\n    }\n\n    // save some gas by making only one contract call\n    function burnFrom(address _from, uint256 _value) public returns (bool) {\n        transferFrom( _from, msg.sender, _value );\n        return burn(_value);\n    }\n}\n\ncontract TokenB is StandardToken {\n\n    string public name = \"TokenB\";\n    string public symbol = \"TKB\";\n    uint public decimals = 18;\n    uint public INITIAL_SUPPLY = 10**(50+18);\n\n    function TestB(string _name, string _symbol, uint _decimals) public {\n        totalSupply = INITIAL_SUPPLY;\n        balances[msg.sender] = INITIAL_SUPPLY;\n        name = _name;\n        symbol = _symbol;\n        decimals = _decimals;\n    }\n\n    event Burn(address indexed _burner, uint _value);\n\n    function burn(uint _value) public returns (bool) {\n        balances[msg.sender] = balances[msg.sender].sub(_value);\n        totalSupply = totalSupply.sub(_value);\n        Burn(msg.sender, _value);\n        Transfer(msg.sender, address(0x0), _value);\n        return true;\n    }\n\n    // save some gas by making only one contract call\n    function burnFrom(address _from, uint256 _value) public returns (bool) {\n        transferFrom( _from, msg.sender, _value );\n        return burn(_value);\n    }\n}\n",
  "sourcePath": "C:\\Users\\My PC\\Desktop\\TestCAP\\contracts\\Token.sol",
  "compiler": {
    "name": "solc",
    "version": "0.4.17+commit.bdeb9e52.Emscripten.clang"
  },
  "schemaVersion": "3.1.0",
  "updatedAt": "2020-06-14T12:54:57.682Z",
  "devdoc": {
    "methods": {}
  },
  "userdoc": {
    "methods": {}
  }
}